{
  "_format": "hh-sol-artifact-1",
  "contractName": "NFTMarketplace",
  "sourceName": "contracts/NFTMarketplace.sol",
  "abi": [
    {
      "inputs": [],
      "stateMutability": "nonpayable",
      "type": "constructor"
    },
    {
      "inputs": [
        {
          "internalType": "address",
          "name": "owner",
          "type": "address"
        }
      ],
      "name": "OwnableInvalidOwner",
      "type": "error"
    },
    {
      "inputs": [
        {
          "internalType": "address",
          "name": "account",
          "type": "address"
        }
      ],
      "name": "OwnableUnauthorizedAccount",
      "type": "error"
    },
    {
      "inputs": [],
      "name": "ReentrancyGuardReentrantCall",
      "type": "error"
    },
    {
      "anonymous": false,
      "inputs": [
        {
          "indexed": false,
          "internalType": "uint256",
          "name": "oldFee",
          "type": "uint256"
        },
        {
          "indexed": false,
          "internalType": "uint256",
          "name": "newFee",
          "type": "uint256"
        }
      ],
      "name": "FeeUpdated",
      "type": "event"
    },
    {
      "anonymous": false,
      "inputs": [
        {
          "indexed": true,
          "internalType": "uint256",
          "name": "listingId",
          "type": "uint256"
        },
        {
          "indexed": true,
          "internalType": "address",
          "name": "nftContract",
          "type": "address"
        },
        {
          "indexed": true,
          "internalType": "uint256",
          "name": "tokenId",
          "type": "uint256"
        },
        {
          "indexed": false,
          "internalType": "address",
          "name": "seller",
          "type": "address"
        },
        {
          "indexed": false,
          "internalType": "uint256",
          "name": "price",
          "type": "uint256"
        }
      ],
      "name": "Listed",
      "type": "event"
    },
    {
      "anonymous": false,
      "inputs": [
        {
          "indexed": true,
          "internalType": "uint256",
          "name": "listingId",
          "type": "uint256"
        },
        {
          "indexed": true,
          "internalType": "address",
          "name": "seller",
          "type": "address"
        }
      ],
      "name": "ListingCancelled",
      "type": "event"
    },
    {
      "anonymous": false,
      "inputs": [
        {
          "indexed": true,
          "internalType": "address",
          "name": "previousOwner",
          "type": "address"
        },
        {
          "indexed": true,
          "internalType": "address",
          "name": "newOwner",
          "type": "address"
        }
      ],
      "name": "OwnershipTransferred",
      "type": "event"
    },
    {
      "anonymous": false,
      "inputs": [
        {
          "indexed": true,
          "internalType": "uint256",
          "name": "listingId",
          "type": "uint256"
        },
        {
          "indexed": false,
          "internalType": "uint256",
          "name": "oldPrice",
          "type": "uint256"
        },
        {
          "indexed": false,
          "internalType": "uint256",
          "name": "newPrice",
          "type": "uint256"
        }
      ],
      "name": "PriceUpdated",
      "type": "event"
    },
    {
      "anonymous": false,
      "inputs": [
        {
          "indexed": true,
          "internalType": "uint256",
          "name": "listingId",
          "type": "uint256"
        },
        {
          "indexed": true,
          "internalType": "address",
          "name": "nftContract",
          "type": "address"
        },
        {
          "indexed": true,
          "internalType": "uint256",
          "name": "tokenId",
          "type": "uint256"
        },
        {
          "indexed": false,
          "internalType": "address",
          "name": "seller",
          "type": "address"
        },
        {
          "indexed": false,
          "internalType": "address",
          "name": "buyer",
          "type": "address"
        },
        {
          "indexed": false,
          "internalType": "uint256",
          "name": "price",
          "type": "uint256"
        }
      ],
      "name": "Sold",
      "type": "event"
    },
    {
      "inputs": [],
      "name": "MAX_FEE",
      "outputs": [
        {
          "internalType": "uint256",
          "name": "",
          "type": "uint256"
        }
      ],
      "stateMutability": "view",
      "type": "function"
    },
    {
      "inputs": [
        {
          "internalType": "uint256",
          "name": "_listingId",
          "type": "uint256"
        }
      ],
      "name": "buyNFT",
      "outputs": [],
      "stateMutability": "payable",
      "type": "function"
    },
    {
      "inputs": [
        {
          "internalType": "uint256",
          "name": "_listingId",
          "type": "uint256"
        }
      ],
      "name": "cancelListing",
      "outputs": [],
      "stateMutability": "nonpayable",
      "type": "function"
    },
    {
      "inputs": [],
      "name": "getActiveListings",
      "outputs": [
        {
          "components": [
            {
              "internalType": "uint256",
              "name": "tokenId",
              "type": "uint256"
            },
            {
              "internalType": "address",
              "name": "nftContract",
              "type": "address"
            },
            {
              "internalType": "address",
              "name": "seller",
              "type": "address"
            },
            {
              "internalType": "uint256",
              "name": "price",
              "type": "uint256"
            },
            {
              "internalType": "bool",
              "name": "active",
              "type": "bool"
            },
            {
              "internalType": "uint256",
              "name": "createdAt",
              "type": "uint256"
            }
          ],
          "internalType": "struct NFTMarketplace.Listing[]",
          "name": "",
          "type": "tuple[]"
        }
      ],
      "stateMutability": "view",
      "type": "function"
    },
    {
      "inputs": [
        {
          "internalType": "address",
          "name": "_nftContract",
          "type": "address"
        },
        {
          "internalType": "uint256",
          "name": "_tokenId",
          "type": "uint256"
        }
      ],
      "name": "getListingByToken",
      "outputs": [
        {
          "components": [
            {
              "internalType": "uint256",
              "name": "tokenId",
              "type": "uint256"
            },
            {
              "internalType": "address",
              "name": "nftContract",
              "type": "address"
            },
            {
              "internalType": "address",
              "name": "seller",
              "type": "address"
            },
            {
              "internalType": "uint256",
              "name": "price",
              "type": "uint256"
            },
            {
              "internalType": "bool",
              "name": "active",
              "type": "bool"
            },
            {
              "internalType": "uint256",
              "name": "createdAt",
              "type": "uint256"
            }
          ],
          "internalType": "struct NFTMarketplace.Listing",
          "name": "",
          "type": "tuple"
        }
      ],
      "stateMutability": "view",
      "type": "function"
    },
    {
      "inputs": [
        {
          "internalType": "address",
          "name": "_seller",
          "type": "address"
        }
      ],
      "name": "getListingsBySeller",
      "outputs": [
        {
          "components": [
            {
              "internalType": "uint256",
              "name": "tokenId",
              "type": "uint256"
            },
            {
              "internalType": "address",
              "name": "nftContract",
              "type": "address"
            },
            {
              "internalType": "address",
              "name": "seller",
              "type": "address"
            },
            {
              "internalType": "uint256",
              "name": "price",
              "type": "uint256"
            },
            {
              "internalType": "bool",
              "name": "active",
              "type": "bool"
            },
            {
              "internalType": "uint256",
              "name": "createdAt",
              "type": "uint256"
            }
          ],
          "internalType": "struct NFTMarketplace.Listing[]",
          "name": "",
          "type": "tuple[]"
        }
      ],
      "stateMutability": "view",
      "type": "function"
    },
    {
      "inputs": [
        {
          "internalType": "address",
          "name": "_nftContract",
          "type": "address"
        },
        {
          "internalType": "uint256",
          "name": "_tokenId",
          "type": "uint256"
        },
        {
          "internalType": "uint256",
          "name": "_price",
          "type": "uint256"
        }
      ],
      "name": "listNFT",
      "outputs": [
        {
          "internalType": "uint256",
          "name": "",
          "type": "uint256"
        }
      ],
      "stateMutability": "nonpayable",
      "type": "function"
    },
    {
      "inputs": [
        {
          "internalType": "uint256",
          "name": "",
          "type": "uint256"
        }
      ],
      "name": "listings",
      "outputs": [
        {
          "internalType": "uint256",
          "name": "tokenId",
          "type": "uint256"
        },
        {
          "internalType": "address",
          "name": "nftContract",
          "type": "address"
        },
        {
          "internalType": "address",
          "name": "seller",
          "type": "address"
        },
        {
          "internalType": "uint256",
          "name": "price",
          "type": "uint256"
        },
        {
          "internalType": "bool",
          "name": "active",
          "type": "bool"
        },
        {
          "internalType": "uint256",
          "name": "createdAt",
          "type": "uint256"
        }
      ],
      "stateMutability": "view",
      "type": "function"
    },
    {
      "inputs": [],
      "name": "marketplaceFee",
      "outputs": [
        {
          "internalType": "uint256",
          "name": "",
          "type": "uint256"
        }
      ],
      "stateMutability": "view",
      "type": "function"
    },
    {
      "inputs": [],
      "name": "owner",
      "outputs": [
        {
          "internalType": "address",
          "name": "",
          "type": "address"
        }
      ],
      "stateMutability": "view",
      "type": "function"
    },
    {
      "inputs": [],
      "name": "renounceOwnership",
      "outputs": [],
      "stateMutability": "nonpayable",
      "type": "function"
    },
    {
      "inputs": [
        {
          "internalType": "address",
          "name": "",
          "type": "address"
        },
        {
          "internalType": "uint256",
          "name": "",
          "type": "uint256"
        }
      ],
      "name": "sellerListings",
      "outputs": [
        {
          "internalType": "uint256",
          "name": "",
          "type": "uint256"
        }
      ],
      "stateMutability": "view",
      "type": "function"
    },
    {
      "inputs": [
        {
          "internalType": "address",
          "name": "",
          "type": "address"
        },
        {
          "internalType": "uint256",
          "name": "",
          "type": "uint256"
        }
      ],
      "name": "tokenToListing",
      "outputs": [
        {
          "internalType": "uint256",
          "name": "",
          "type": "uint256"
        }
      ],
      "stateMutability": "view",
      "type": "function"
    },
    {
      "inputs": [],
      "name": "totalListings",
      "outputs": [
        {
          "internalType": "uint256",
          "name": "",
          "type": "uint256"
        }
      ],
      "stateMutability": "view",
      "type": "function"
    },
    {
      "inputs": [
        {
          "internalType": "address",
          "name": "newOwner",
          "type": "address"
        }
      ],
      "name": "transferOwnership",
      "outputs": [],
      "stateMutability": "nonpayable",
      "type": "function"
    },
    {
      "inputs": [
        {
          "internalType": "uint256",
          "name": "_newFee",
          "type": "uint256"
        }
      ],
      "name": "updateFee",
      "outputs": [],
      "stateMutability": "nonpayable",
      "type": "function"
    },
    {
      "inputs": [
        {
          "internalType": "uint256",
          "name": "_listingId",
          "type": "uint256"
        },
        {
          "internalType": "uint256",
          "name": "_newPrice",
          "type": "uint256"
        }
      ],
      "name": "updatePrice",
      "outputs": [],
      "stateMutability": "nonpayable",
      "type": "function"
    },
    {
      "inputs": [],
      "name": "withdraw",
      "outputs": [],
      "stateMutability": "nonpayable",
      "type": "function"
    }
  ],
  "bytecode": "0x608080604052346100a15760017f9b779b17422d0df92223018b32b4d1fa46e071723d6817e2486d003becc55f0055331561008c575f8054336001600160a01b03198216811783556040519290916001600160a01b0316907f8be0079c531659141344cd1fd0a4f28419497f9722a3daafe3b4186f6b6457e09080a360fa6005556114cc90816100a68239f35b631e4fbdf760e01b81525f6004820152602490fd5b5f80fdfe60406080815260049081361015610014575f80fd5b5f915f3560e01c8063054564f0146110d5578063248d9aa314610ff3578063305a67a814610e985780633ccfd60b14610ddd57806351ed828814610ac95780636a16696414610aaa5780636f7b435214610a69578063715018a614610a1057806382367b2d1461093857806387c35bc0146108165780638da5cb5b146107ee5780639012c4a81461075c578063ad05f1b414610338578063bc063e1a14610317578063c78b616c146102fa578063d8cba251146101e1578063de74e57b146101745763f2fde38b146100e4575f80fd5b34610170576020366003190112610170576100fd61112c565b9061010661144b565b6001600160a01b0391821692831561015a5750505f54826bffffffffffffffffffffffff60a01b8216175f55167f8be0079c531659141344cd1fd0a4f28419497f9722a3daafe3b4186f6b6457e05f80a380f35b51631e4fbdf760e01b8152908101849052602490fd5b8280fd5b509034610170576020366003190112610170578060c0938335815260016020522080549260018060a01b0392836001840154169360028401541690600560ff60038601549486015416940154948151968752602087015285015260608401521515608083015260a0820152f35b5082346102f757602090816003193601126102f7576001600160a01b03918261020861112c565b16825260039360038252858320948651808785829954938481520190875285872092875b878282106102e15750505061024392500387611235565b61024d865161139a565b94845b87518110156102d057806102666001928a6113e9565b5187528180875260058b8920858d519361027f856111f1565b825485528201541689840152856002820154168d84015286810154606084015260ff888201541615156080840152015460a08201526102be828a6113e9565b526102c981896113e9565b5001610250565b8851806102dd898261116b565b0390f35b855484526001958601958c95509301920161022c565b80fd5b503461017057826003193601126101705760209250549051908152f35b505034610334578160031936011261033457602090516103e88152f35b5080fd5b509190346103345760603660031901126103345761035461112c565b916024938435916044359061036761141c565b610372821515611328565b84516331a9108f60e11b81528084018590526020976001600160a01b03978816949189818381895afa9081156106c657849161073f575b50883391160361070a57865163e985e9c560e01b8152338382015230828201528981604481895afa9081156106c65784916106d0575b508015610667575b1561062657848352600289528683208684528952868320541580156105fd575b156105c6576104168254611374565b978883556005848a878d8c80519661042d886111f1565b8d8852828801918d83526001818a019433865260608b0196875260808b019782895260a08c0199428b5252528b20975188558060018901925116916bffffffffffffffffffffffff60a01b928382541617905560028801925116908254161790555160038501558584019051151560ff8019835416911617905551910155848352600289528683208684528952878784205533835260038952868320805491680100000000000000008310156105b55750906104ee91600182018155611142565b81549060031b9089821b915f19901b1916179055833b156103345785516323b872dd60e01b8152339181019182523060208301526040820186905290829082908190606001038183885af180156105ab579186918893610590575b50507f9791797c382de5e73cc7c32c32ffd8304e9b9cc1f6afd967990c1edd0729dba9919281519033825289820152a460015f805160206114778339815191525551908152f35b81935061059e919250611221565b6102f75784818792610549565b86513d84823e3d90fd5b634e487b7160e01b85526041845284fd5b865162461bcd60e51b81529182018990526012908201527113919508185b1c9958591e481b1a5cdd195960721b6044820152606490fd5b508483526002895286832086845289528683205483526001895260ff8288852001541615610407565b865162461bcd60e51b815291820189905281018890527f4e4654206e6f7420617070726f76656420666f72206d61726b6574706c6163656044820152606490fd5b50865163020604bf60e21b815282810187905289818381895afa9081156106c6578491610699575b50881630146103e7565b6106b991508a3d8c116106bf575b6106b18183611235565b8101906113fd565b5f61068f565b503d6106a7565b88513d86823e3d90fd5b90508981813d8311610703575b6106e78183611235565b810103126106ff575180151581036106ff575f6103df565b8380fd5b503d6106dd565b865162461bcd60e51b81529182018990526010908201526f139bdd081bdddb995c881bd98813919560821b6044820152606490fd5b61075691508a3d8c116106bf576106b18183611235565b5f6103a9565b50346101705760203660031901126101705780359061077961144b565b6103e882116107bc5750907f528d9479e9f9889a87a3c30c7f7ba537e5e59c4c85a37733b16e57c62df6130291600554908060055582519182526020820152a180f35b606490602084519162461bcd60e51b8352820152600c60248201526b08ccaca40e8dede40d0d2ced60a31b6044820152fd5b505034610334578160031936011261033457905490516001600160a01b039091168152602090f35b5090346101705782600319360112610170578154928060015b858111156108ff57506108419061139a565b928160015b8681111561085b578451806102dd888261116b565b80825260206001815285832060ff858201541680610885575b50505061088090611374565b610846565b9160056108809497926108f6948a519361089e856111f1565b8254855260018301546001600160a01b03908116918601919091526002830154168b8501526003820154606085015215156080840152015460a08201526108e5828a6113e9565b526108f081896113e9565b50611374565b93905f80610874565b808352600160205260ff85858520015416610923575b61091e90611374565b61082f565b9061093061091e91611374565b919050610915565b5090346101705780600319360112610170578135916024359061095961141c565b83855260016020528285209061097460ff8284015416611287565b60028201546001600160a01b031633036109e057509060037f15819dd2fd9f6418b142e798d08a18d0bf06ea368f4480b7b0d3f75bd966bc4893926109ba831515611328565b0190808254925582519182526020820152a260015f805160206114778339815191525580f35b606490602085519162461bcd60e51b8352820152600a6024820152692737ba1039b2b63632b960b11b6044820152fd5b83346102f757806003193601126102f757610a2961144b565b5f80546001600160a01b0319811682556001600160a01b03167f8be0079c531659141344cd1fd0a4f28419497f9722a3daafe3b4186f6b6457e08280a380f35b50503461033457806003193601126103345760209181906001600160a01b03610a9061112c565b168152600284528181206024358252845220549051908152f35b5050346103345781600319360112610334576020906005549051908152f35b50602091826003193601126106ff57813590610ae361141c565b818552600184528085209280840194855490610b0160ff8316611287565b6003860192835491823410610da457600288019860018060a01b0394858b54163314610d615760ff19169055600554808402908482041484151715610d4e57612710610b4f91048094611307565b928a60018a0194868654168b5490803b156106ff578a516323b872dd60e01b8152308882019081523360208201526040810193909352918491839182908490829060600103925af18015610d44578d84928a92610d2b575b5092829391839254165af1610bba6112c8565b5015610ce857808b91610c91575b508554803411610c3a575b5050915496549754935494519383166001600160a01b03168452505033602083015260408201929092529216917fa2e6e4d40c14021b8ba9fe827b3d6d467185016a377c5ab1aab7a5dd9619ac2490606090a460015f805160206114778339815191525580f35b8180610c47819334611307565b335af1610c526112c8565b5015610c5f578981610bd3565b855162461bcd60e51b815291820152600d60248201526c1499599d5b990819985a5b1959609a1b604482015260649150fd5b81808092888254165af1610ca36112c8565b5015610cb057895f610bc8565b855162461bcd60e51b8152918201526013602482015272119959481d1c985b9cd9995c8819985a5b1959606a1b604482015260649150fd5b865162461bcd60e51b8152808401839052601860248201527f5061796d656e7420746f2073656c6c6572206661696c656400000000000000006044820152606490fd5b9050610d379150611221565b6103345781878d5f610ba7565b8a513d85823e3d90fd5b634e487b7160e01b8b526011835260248bfd5b875162461bcd60e51b8152808501849052601760248201527f43616e6e6f742062757920796f7572206f776e204e46540000000000000000006044820152606490fd5b855162461bcd60e51b8152918201526014602482015273125b9cdd59999a58da595b9d081c185e5b595b9d60621b604482015260649150fd5b509034610170578260031936011261017057610df761144b565b478015610e5c57835484918291829182916001600160a01b03165af1610e1b6112c8565b5015610e25578280f35b906020606492519162461bcd60e51b8352820152601160248201527015da5d1a191c985dd85b0819985a5b1959607a1b6044820152fd5b815162461bcd60e51b815260208185015260166024820152754e6f2062616c616e636520746f20776974686472617760501b6044820152606490fd5b509034610faf576020366003190112610faf57813591610eb661141c565b825f526001602052815f209080820192835491610ed560ff8416611287565b600284019360018060a01b039586865416948533148015610fe7575b15610fb35760ff1916905560018101549054908616803b15610faf5783516323b872dd60e01b8152309381019384526001600160a01b03909516602084015260408301919091525f9184919082908490829060600103925af1908115610fa65750610f93575b505416907f8e25282255ab31897df2b0456bb993ac7f84d376861aefd84901d2d63a7428a28380a360015f805160206114778339815191525580f35b610f9e919450611221565b5f925f610f57565b513d5f823e3d90fd5b5f80fd5b845162461bcd60e51b8152602081860152600e60248201526d139bdd08185d5d1a1bdc9a5e995960921b6044820152606490fd5b50875f54163314610ef1565b5034610faf5781600319360112610faf576110d360c092600561101461112c565b9361101d611257565b5060018060a01b038095165f526002602052825f206024355f52602052825f20545f52600160205260ff835f2091845196611057886111f1565b8354885280600185015416602089015260028401541685880152600383015460608801528201541615156080860152015460a084015251809260a08091805184526020810151600180841b0380911660208601526040820151166040850152606081015160608501526080810151151560808501520151910152565bf35b8234610faf5780600319360112610faf576110ee61112c565b6001600160a01b03165f90815260036020528190208054602435929190831015610faf5760209261111e91611142565b90549060031b1c9051908152f35b600435906001600160a01b0382168203610faf57565b8054821015611157575f5260205f2001905f90565b634e487b7160e01b5f52603260045260245ffd5b60209060206040818301928281528551809452019301915f5b828110611192575050505090565b909192938260c0826111e5600194895160a08091805184526020810151600180841b0380911660208601526040820151166040850152606081015160608501526080810151151560808501520151910152565b01950193929101611184565b60c0810190811067ffffffffffffffff82111761120d57604052565b634e487b7160e01b5f52604160045260245ffd5b67ffffffffffffffff811161120d57604052565b90601f8019910116810190811067ffffffffffffffff82111761120d57604052565b60405190611264826111f1565b5f60a0838281528260208201528260408201528260608201528260808201520152565b1561128e57565b60405162461bcd60e51b81526020600482015260126024820152714c697374696e67206e6f742061637469766560701b6044820152606490fd5b3d15611302573d9067ffffffffffffffff821161120d57604051916112f7601f8201601f191660200184611235565b82523d5f602084013e565b606090565b9190820391821161131457565b634e487b7160e01b5f52601160045260245ffd5b1561132f57565b60405162461bcd60e51b815260206004820152601c60248201527f5072696365206d7573742062652067726561746572207468616e2030000000006044820152606490fd5b5f1981146113145760010190565b67ffffffffffffffff811161120d5760051b60200190565b906113a482611382565b6113b16040519182611235565b82815280926113c2601f1991611382565b01905f5b8281106113d257505050565b6020906113dd611257565b828285010152016113c6565b80518210156111575760209160051b010190565b90816020910312610faf57516001600160a01b0381168103610faf5790565b5f8051602061147783398151915260028154146114395760029055565b604051633ee5aeb560e01b8152600490fd5b5f546001600160a01b0316330361145e57565b60405163118cdaa760e01b8152336004820152602490fdfe9b779b17422d0df92223018b32b4d1fa46e071723d6817e2486d003becc55f00a2646970667358221220da16aa527c6d85bf8bc55adb8a04ec0391362988bd38c06c934e770fca64a37d64736f6c63430008180033",
  "linkReferences": {},
  "deployedLinkReferences": {}
}