{
  "_format": "hh-sol-artifact-1",
  "contractName": "ContentNFT",
  "sourceName": "contracts/ContentNFT.sol",
  "abi": [
    {
      "inputs": [],
      "stateMutability": "nonpayable",
      "type": "constructor"
    },
    {
      "inputs": [
        {
          "internalType": "address",
          "name": "sender",
          "type": "address"
        },
        {
          "internalType": "uint256",
          "name": "tokenId",
          "type": "uint256"
        },
        {
          "internalType": "address",
          "name": "owner",
          "type": "address"
        }
      ],
      "name": "ERC721IncorrectOwner",
      "type": "error"
    },
    {
      "inputs": [
        {
          "internalType": "address",
          "name": "operator",
          "type": "address"
        },
        {
          "internalType": "uint256",
          "name": "tokenId",
          "type": "uint256"
        }
      ],
      "name": "ERC721InsufficientApproval",
      "type": "error"
    },
    {
      "inputs": [
        {
          "internalType": "address",
          "name": "approver",
          "type": "address"
        }
      ],
      "name": "ERC721InvalidApprover",
      "type": "error"
    },
    {
      "inputs": [
        {
          "internalType": "address",
          "name": "operator",
          "type": "address"
        }
      ],
      "name": "ERC721InvalidOperator",
      "type": "error"
    },
    {
      "inputs": [
        {
          "internalType": "address",
          "name": "owner",
          "type": "address"
        }
      ],
      "name": "ERC721InvalidOwner",
      "type": "error"
    },
    {
      "inputs": [
        {
          "internalType": "address",
          "name": "receiver",
          "type": "address"
        }
      ],
      "name": "ERC721InvalidReceiver",
      "type": "error"
    },
    {
      "inputs": [
        {
          "internalType": "address",
          "name": "sender",
          "type": "address"
        }
      ],
      "name": "ERC721InvalidSender",
      "type": "error"
    },
    {
      "inputs": [
        {
          "internalType": "uint256",
          "name": "tokenId",
          "type": "uint256"
        }
      ],
      "name": "ERC721NonexistentToken",
      "type": "error"
    },
    {
      "inputs": [
        {
          "internalType": "address",
          "name": "owner",
          "type": "address"
        }
      ],
      "name": "OwnableInvalidOwner",
      "type": "error"
    },
    {
      "inputs": [
        {
          "internalType": "address",
          "name": "account",
          "type": "address"
        }
      ],
      "name": "OwnableUnauthorizedAccount",
      "type": "error"
    },
    {
      "anonymous": false,
      "inputs": [
        {
          "indexed": true,
          "internalType": "address",
          "name": "owner",
          "type": "address"
        },
        {
          "indexed": true,
          "internalType": "address",
          "name": "approved",
          "type": "address"
        },
        {
          "indexed": true,
          "internalType": "uint256",
          "name": "tokenId",
          "type": "uint256"
        }
      ],
      "name": "Approval",
      "type": "event"
    },
    {
      "anonymous": false,
      "inputs": [
        {
          "indexed": true,
          "internalType": "address",
          "name": "owner",
          "type": "address"
        },
        {
          "indexed": true,
          "internalType": "address",
          "name": "operator",
          "type": "address"
        },
        {
          "indexed": false,
          "internalType": "bool",
          "name": "approved",
          "type": "bool"
        }
      ],
      "name": "ApprovalForAll",
      "type": "event"
    },
    {
      "anonymous": false,
      "inputs": [
        {
          "indexed": false,
          "internalType": "uint256",
          "name": "_fromTokenId",
          "type": "uint256"
        },
        {
          "indexed": false,
          "internalType": "uint256",
          "name": "_toTokenId",
          "type": "uint256"
        }
      ],
      "name": "BatchMetadataUpdate",
      "type": "event"
    },
    {
      "anonymous": false,
      "inputs": [
        {
          "indexed": false,
          "internalType": "uint256",
          "name": "_tokenId",
          "type": "uint256"
        }
      ],
      "name": "MetadataUpdate",
      "type": "event"
    },
    {
      "anonymous": false,
      "inputs": [
        {
          "indexed": true,
          "internalType": "uint256",
          "name": "tokenId",
          "type": "uint256"
        },
        {
          "indexed": false,
          "internalType": "uint256",
          "name": "visits",
          "type": "uint256"
        },
        {
          "indexed": false,
          "internalType": "uint256",
          "name": "likes",
          "type": "uint256"
        },
        {
          "indexed": false,
          "internalType": "uint256",
          "name": "subscribers",
          "type": "uint256"
        }
      ],
      "name": "MetadataUpdated",
      "type": "event"
    },
    {
      "anonymous": false,
      "inputs": [
        {
          "indexed": true,
          "internalType": "uint256",
          "name": "tokenId",
          "type": "uint256"
        },
        {
          "indexed": true,
          "internalType": "address",
          "name": "creator",
          "type": "address"
        },
        {
          "indexed": false,
          "internalType": "string",
          "name": "name",
          "type": "string"
        },
        {
          "indexed": false,
          "internalType": "string",
          "name": "contentType",
          "type": "string"
        }
      ],
      "name": "NFTMinted",
      "type": "event"
    },
    {
      "anonymous": false,
      "inputs": [
        {
          "indexed": true,
          "internalType": "address",
          "name": "previousOwner",
          "type": "address"
        },
        {
          "indexed": true,
          "internalType": "address",
          "name": "newOwner",
          "type": "address"
        }
      ],
      "name": "OwnershipTransferred",
      "type": "event"
    },
    {
      "anonymous": false,
      "inputs": [
        {
          "indexed": true,
          "internalType": "address",
          "name": "from",
          "type": "address"
        },
        {
          "indexed": true,
          "internalType": "address",
          "name": "to",
          "type": "address"
        },
        {
          "indexed": true,
          "internalType": "uint256",
          "name": "tokenId",
          "type": "uint256"
        }
      ],
      "name": "Transfer",
      "type": "event"
    },
    {
      "inputs": [
        {
          "internalType": "address",
          "name": "to",
          "type": "address"
        },
        {
          "internalType": "uint256",
          "name": "tokenId",
          "type": "uint256"
        }
      ],
      "name": "approve",
      "outputs": [],
      "stateMutability": "nonpayable",
      "type": "function"
    },
    {
      "inputs": [
        {
          "internalType": "address",
          "name": "owner",
          "type": "address"
        }
      ],
      "name": "balanceOf",
      "outputs": [
        {
          "internalType": "uint256",
          "name": "",
          "type": "uint256"
        }
      ],
      "stateMutability": "view",
      "type": "function"
    },
    {
      "inputs": [
        {
          "internalType": "address",
          "name": "",
          "type": "address"
        },
        {
          "internalType": "uint256",
          "name": "",
          "type": "uint256"
        }
      ],
      "name": "creatorTokens",
      "outputs": [
        {
          "internalType": "uint256",
          "name": "",
          "type": "uint256"
        }
      ],
      "stateMutability": "view",
      "type": "function"
    },
    {
      "inputs": [
        {
          "internalType": "uint256",
          "name": "tokenId",
          "type": "uint256"
        }
      ],
      "name": "getApproved",
      "outputs": [
        {
          "internalType": "address",
          "name": "",
          "type": "address"
        }
      ],
      "stateMutability": "view",
      "type": "function"
    },
    {
      "inputs": [
        {
          "internalType": "uint256",
          "name": "_tokenId",
          "type": "uint256"
        }
      ],
      "name": "getMetadata",
      "outputs": [
        {
          "components": [
            {
              "internalType": "string",
              "name": "name",
              "type": "string"
            },
            {
              "internalType": "string",
              "name": "description",
              "type": "string"
            },
            {
              "internalType": "string",
              "name": "externalUrl",
              "type": "string"
            },
            {
              "internalType": "string",
              "name": "image",
              "type": "string"
            },
            {
              "internalType": "string",
              "name": "genre",
              "type": "string"
            },
            {
              "internalType": "uint256",
              "name": "durationSeconds",
              "type": "uint256"
            },
            {
              "internalType": "uint256",
              "name": "publicationDate",
              "type": "uint256"
            },
            {
              "internalType": "uint256",
              "name": "lastUpdate",
              "type": "uint256"
            },
            {
              "internalType": "uint256",
              "name": "visits",
              "type": "uint256"
            },
            {
              "internalType": "uint256",
              "name": "likes",
              "type": "uint256"
            },
            {
              "internalType": "uint256",
              "name": "subscribers",
              "type": "uint256"
            },
            {
              "internalType": "uint256",
              "name": "clickRate",
              "type": "uint256"
            },
            {
              "internalType": "uint256",
              "name": "conversions",
              "type": "uint256"
            },
            {
              "internalType": "string",
              "name": "contentType",
              "type": "string"
            },
            {
              "internalType": "string",
              "name": "platform",
              "type": "string"
            },
            {
              "internalType": "address",
              "name": "creator",
              "type": "address"
            },
            {
              "internalType": "uint256",
              "name": "mintedAt",
              "type": "uint256"
            },
            {
              "internalType": "bool",
              "name": "exists",
              "type": "bool"
            }
          ],
          "internalType": "struct ContentNFT.ContentMetadata",
          "name": "",
          "type": "tuple"
        }
      ],
      "stateMutability": "view",
      "type": "function"
    },
    {
      "inputs": [
        {
          "internalType": "address",
          "name": "_creator",
          "type": "address"
        }
      ],
      "name": "getTokensByCreator",
      "outputs": [
        {
          "internalType": "uint256[]",
          "name": "",
          "type": "uint256[]"
        }
      ],
      "stateMutability": "view",
      "type": "function"
    },
    {
      "inputs": [
        {
          "internalType": "address",
          "name": "owner",
          "type": "address"
        },
        {
          "internalType": "address",
          "name": "operator",
          "type": "address"
        }
      ],
      "name": "isApprovedForAll",
      "outputs": [
        {
          "internalType": "bool",
          "name": "",
          "type": "bool"
        }
      ],
      "stateMutability": "view",
      "type": "function"
    },
    {
      "inputs": [
        {
          "internalType": "string",
          "name": "_name",
          "type": "string"
        },
        {
          "internalType": "string",
          "name": "_description",
          "type": "string"
        },
        {
          "internalType": "string",
          "name": "_externalUrl",
          "type": "string"
        },
        {
          "internalType": "string",
          "name": "_image",
          "type": "string"
        },
        {
          "internalType": "string",
          "name": "_genre",
          "type": "string"
        },
        {
          "internalType": "uint256",
          "name": "_durationSeconds",
          "type": "uint256"
        },
        {
          "internalType": "uint256",
          "name": "_publicationDate",
          "type": "uint256"
        },
        {
          "internalType": "uint256",
          "name": "_visits",
          "type": "uint256"
        },
        {
          "internalType": "uint256",
          "name": "_likes",
          "type": "uint256"
        },
        {
          "internalType": "uint256",
          "name": "_subscribers",
          "type": "uint256"
        },
        {
          "internalType": "uint256",
          "name": "_clickRate",
          "type": "uint256"
        },
        {
          "internalType": "uint256",
          "name": "_conversions",
          "type": "uint256"
        },
        {
          "internalType": "string",
          "name": "_contentType",
          "type": "string"
        },
        {
          "internalType": "string",
          "name": "_platform",
          "type": "string"
        }
      ],
      "name": "mintNFT",
      "outputs": [
        {
          "internalType": "uint256",
          "name": "",
          "type": "uint256"
        }
      ],
      "stateMutability": "nonpayable",
      "type": "function"
    },
    {
      "inputs": [],
      "name": "name",
      "outputs": [
        {
          "internalType": "string",
          "name": "",
          "type": "string"
        }
      ],
      "stateMutability": "view",
      "type": "function"
    },
    {
      "inputs": [],
      "name": "owner",
      "outputs": [
        {
          "internalType": "address",
          "name": "",
          "type": "address"
        }
      ],
      "stateMutability": "view",
      "type": "function"
    },
    {
      "inputs": [
        {
          "internalType": "uint256",
          "name": "tokenId",
          "type": "uint256"
        }
      ],
      "name": "ownerOf",
      "outputs": [
        {
          "internalType": "address",
          "name": "",
          "type": "address"
        }
      ],
      "stateMutability": "view",
      "type": "function"
    },
    {
      "inputs": [],
      "name": "renounceOwnership",
      "outputs": [],
      "stateMutability": "nonpayable",
      "type": "function"
    },
    {
      "inputs": [
        {
          "internalType": "address",
          "name": "from",
          "type": "address"
        },
        {
          "internalType": "address",
          "name": "to",
          "type": "address"
        },
        {
          "internalType": "uint256",
          "name": "tokenId",
          "type": "uint256"
        }
      ],
      "name": "safeTransferFrom",
      "outputs": [],
      "stateMutability": "nonpayable",
      "type": "function"
    },
    {
      "inputs": [
        {
          "internalType": "address",
          "name": "from",
          "type": "address"
        },
        {
          "internalType": "address",
          "name": "to",
          "type": "address"
        },
        {
          "internalType": "uint256",
          "name": "tokenId",
          "type": "uint256"
        },
        {
          "internalType": "bytes",
          "name": "data",
          "type": "bytes"
        }
      ],
      "name": "safeTransferFrom",
      "outputs": [],
      "stateMutability": "nonpayable",
      "type": "function"
    },
    {
      "inputs": [
        {
          "internalType": "address",
          "name": "operator",
          "type": "address"
        },
        {
          "internalType": "bool",
          "name": "approved",
          "type": "bool"
        }
      ],
      "name": "setApprovalForAll",
      "outputs": [],
      "stateMutability": "nonpayable",
      "type": "function"
    },
    {
      "inputs": [
        {
          "internalType": "bytes4",
          "name": "interfaceId",
          "type": "bytes4"
        }
      ],
      "name": "supportsInterface",
      "outputs": [
        {
          "internalType": "bool",
          "name": "",
          "type": "bool"
        }
      ],
      "stateMutability": "view",
      "type": "function"
    },
    {
      "inputs": [],
      "name": "symbol",
      "outputs": [
        {
          "internalType": "string",
          "name": "",
          "type": "string"
        }
      ],
      "stateMutability": "view",
      "type": "function"
    },
    {
      "inputs": [
        {
          "internalType": "uint256",
          "name": "",
          "type": "uint256"
        }
      ],
      "name": "tokenMetadata",
      "outputs": [
        {
          "internalType": "string",
          "name": "name",
          "type": "string"
        },
        {
          "internalType": "string",
          "name": "description",
          "type": "string"
        },
        {
          "internalType": "string",
          "name": "externalUrl",
          "type": "string"
        },
        {
          "internalType": "string",
          "name": "image",
          "type": "string"
        },
        {
          "internalType": "string",
          "name": "genre",
          "type": "string"
        },
        {
          "internalType": "uint256",
          "name": "durationSeconds",
          "type": "uint256"
        },
        {
          "internalType": "uint256",
          "name": "publicationDate",
          "type": "uint256"
        },
        {
          "internalType": "uint256",
          "name": "lastUpdate",
          "type": "uint256"
        },
        {
          "internalType": "uint256",
          "name": "visits",
          "type": "uint256"
        },
        {
          "internalType": "uint256",
          "name": "likes",
          "type": "uint256"
        },
        {
          "internalType": "uint256",
          "name": "subscribers",
          "type": "uint256"
        },
        {
          "internalType": "uint256",
          "name": "clickRate",
          "type": "uint256"
        },
        {
          "internalType": "uint256",
          "name": "conversions",
          "type": "uint256"
        },
        {
          "internalType": "string",
          "name": "contentType",
          "type": "string"
        },
        {
          "internalType": "string",
          "name": "platform",
          "type": "string"
        },
        {
          "internalType": "address",
          "name": "creator",
          "type": "address"
        },
        {
          "internalType": "uint256",
          "name": "mintedAt",
          "type": "uint256"
        },
        {
          "internalType": "bool",
          "name": "exists",
          "type": "bool"
        }
      ],
      "stateMutability": "view",
      "type": "function"
    },
    {
      "inputs": [
        {
          "internalType": "uint256",
          "name": "tokenId",
          "type": "uint256"
        }
      ],
      "name": "tokenURI",
      "outputs": [
        {
          "internalType": "string",
          "name": "",
          "type": "string"
        }
      ],
      "stateMutability": "view",
      "type": "function"
    },
    {
      "inputs": [],
      "name": "totalSupply",
      "outputs": [
        {
          "internalType": "uint256",
          "name": "",
          "type": "uint256"
        }
      ],
      "stateMutability": "view",
      "type": "function"
    },
    {
      "inputs": [
        {
          "internalType": "address",
          "name": "from",
          "type": "address"
        },
        {
          "internalType": "address",
          "name": "to",
          "type": "address"
        },
        {
          "internalType": "uint256",
          "name": "tokenId",
          "type": "uint256"
        }
      ],
      "name": "transferFrom",
      "outputs": [],
      "stateMutability": "nonpayable",
      "type": "function"
    },
    {
      "inputs": [
        {
          "internalType": "address",
          "name": "newOwner",
          "type": "address"
        }
      ],
      "name": "transferOwnership",
      "outputs": [],
      "stateMutability": "nonpayable",
      "type": "function"
    },
    {
      "inputs": [
        {
          "internalType": "uint256",
          "name": "_tokenId",
          "type": "uint256"
        },
        {
          "internalType": "uint256",
          "name": "_visits",
          "type": "uint256"
        },
        {
          "internalType": "uint256",
          "name": "_likes",
          "type": "uint256"
        },
        {
          "internalType": "uint256",
          "name": "_subscribers",
          "type": "uint256"
        },
        {
          "internalType": "uint256",
          "name": "_clickRate",
          "type": "uint256"
        },
        {
          "internalType": "uint256",
          "name": "_conversions",
          "type": "uint256"
        }
      ],
      "name": "updateMetadata",
      "outputs": [],
      "stateMutability": "nonpayable",
      "type": "function"
    }
  ],
  "bytecode": "0x6080346200036b576001600160401b03906040908082018381118282101762000357578252600a81526020906910dbdb9d195b9d13919560b21b8282015282519383850185811082821117620003575784526004928386526310d3919560e21b8187015282519082821162000263575f54916001948584811c941680156200034c575b8385101462000339578190601f94858111620002e6575b50839085831160011462000282575f9262000276575b50505f19600383901b1c191690851b175f555b8651928311620002635783548481811c9116801562000258575b828210146200024557828111620001fd575b508091831160011462000197575081929394955f926200018b575b50505f19600383901b1c191690821b1790555b331562000176575060078054336001600160a01b0319821681179092559151916001600160a01b03167f8be0079c531659141344cd1fd0a4f28419497f9722a3daafe3b4186f6b6457e05f80a361233c9081620003708239f35b5f6024925191631e4fbdf760e01b8352820152fd5b015190505f8062000109565b90601f19831696845f52825f20925f905b898210620001e5575050838596979810620001cc575b505050811b0190556200011c565b01515f1960f88460031b161c191690555f8080620001be565b808785968294968601518155019501930190620001a8565b845f52815f208380860160051c8201928487106200023b575b0160051c019085905b8281106200022f575050620000ee565b5f81550185906200021f565b9250819262000216565b602286634e487b7160e01b5f525260245ffd5b90607f1690620000dc565b604185634e487b7160e01b5f525260245ffd5b015190505f80620000af565b90879350601f198316915f8052855f20925f5b87828210620002cf5750508411620002b6575b505050811b015f55620000c2565b01515f1960f88460031b161c191690555f8080620002a8565b8385015186558b9790950194938401930162000295565b9091505f8052835f208580850160051c8201928686106200032f575b918991869594930160051c01915b8281106200032057505062000099565b5f815585945089910162000310565b9250819262000302565b602287634e487b7160e01b5f525260245ffd5b93607f169362000082565b634e487b7160e01b5f52604160045260245ffd5b5f80fdfe610120806040526004361015610013575f80fd5b5f3560e01c90816301ffc9a714611ca75750806306fdde0314611c00578063081812fc14611bc4578063095ea7b314611ae35780630ef7c9ab14610dda57806318160ddd14610dbd57806323b872dd14610da657806342842e0e14610d795780636352211e14610d495780636914db6014610b7357806370a0823114610b1d578063715018a614610ac25780638da5cb5b14610a9a57806395d89b41146109bc578063a22cb465146108f4578063a574cea4146105ea578063ac671a59146104c0578063b88d4fde14610453578063c87b56dd146102fc578063d5c712751461024e578063db3fa4cc146101f7578063e985e9c5146101a55763f2fde38b1461011a575f80fd5b346101a15760203660031901126101a157610133611d6a565b61013b612190565b6001600160a01b0390811690811561018957600754826001600160601b0360a01b821617600755167f8be0079c531659141344cd1fd0a4f28419497f9722a3daafe3b4186f6b6457e05f80a3005b604051631e4fbdf760e01b81525f6004820152602490fd5b5f80fd5b346101a15760403660031901126101a1576101be611d6a565b6101c6611d80565b9060018060a01b038091165f52600560205260405f2091165f52602052602060ff60405f2054166040519015158152f35b346101a15760403660031901126101a157610210611d6a565b6001600160a01b03165f908152600a60205260409020805460243591908210156101a15760209161024091611f6c565b90546040519160031b1c8152f35b346101a1576020806003193601126101a1576001600160a01b03610270611d6a565b165f52600a815260405f20604051908183825491828152019081925f52845f20905f5b868282106102e85786866102a982880383611dcd565b60405192839281840190828552518091526040840192915f5b8281106102d157505050500390f35b8351855286955093810193928101926001016102c2565b835485529093019260019283019201610293565b346101a1576020806003193601126101a157600435805f526009825261032b60ff601160405f20015416612113565b5f526009815260405f2060405161034181611d96565b61034a82611eca565b815261035860018301611eca565b8382015261036860028301611eca565b604082015261022060ff601161038060038601611eca565b946060850195865261039460048201611eca565b6080860152600581015460a0860152600681015460c0860152600781015460e086015260088101546101008601526009810154610120860152600a810154610140860152600b810154610160860152600c8101546101808601526103fa600d8201611eca565b6101a086015261040c600e8201611eca565b6101c0860152600f8101546001600160a01b03166101e0860152601081015461020086015201541615159101525160405182815291829161044f91830190611d2c565b0390f35b346101a15760803660031901126101a15761046c611d6a565b610474611d80565b90604435606435926001600160401b0384116101a157366023850112156101a1576104ac6104be943690602481600401359101611e09565b926104b8838383611f95565b336121bc565b005b346101a15760c03660031901126101a15760043560243560443560643591835f5260096020526104f960ff601160405f20015416612113565b61050284612156565b6001600160a01b0390811633149081156105ce575b5015610589577fb6cb1b464ca3aafd50611d08119a275e27a3324edf21b153a200f62140ee5c2e92606092855f52600960205260405f2083600882015581600982015582600a820155608435600b82015560a435600c82015560074291015560405192835260208301526040820152a2005b60405162461bcd60e51b815260206004820152601860248201527f4e6f7420617574686f72697a656420746f2075706461746500000000000000006044820152606490fd5b9050845f5260096020523390600f60405f200154161485610517565b346101a15760203660031901126101a1575f61022060405161060b81611d96565b606081526060602082015260606040820152606080820152606060808201528260a08201528260c08201528260e0820152826101008201528261012082015282610140820152826101608201528261018082015260606101a082015260606101c0820152826101e08201528261020082015201526004355f52600960205261069c60ff601160405f20015416612113565b6004355f52600960205260405f2060ff6011604051926106bb84611d96565b6106c481611eca565b84526106d260018201611eca565b60208501526106e360028201611eca565b60408501526106f460038201611eca565b606085015261070560048201611eca565b6080850152600581015460a0850152600681015460c0850152600781015460e085015260088101546101008501526009810154610120850152600a810154610140850152600b810154610160850152600c81015461018085015261076b600d8201611eca565b6101a085015261077d600e8201611eca565b6101c085015260018060a01b03600f820154166101e0850152601081015461020085015201541615156102208201526040518091602082526102206108c56108ad61083a61082461080e6107f86107e2885161024060208c01526102608b0190611d2c565b60208901518a8203601f190160408c0152611d2c565b6040880151898203601f190160608b0152611d2c565b6060870151888203601f190160808a0152611d2c565b6080860151878203601f190160a0890152611d2c565b60a085015160c087015260c085015160e087015260e08501516101008701526101008501516101208701526101208501516101408701526101408501516101608701526101608501516101808701526101808501516101a08701526101a0850151601f19878303016101c0880152611d2c565b6101c0840151858203601f19016101e0870152611d2c565b6101e08301516001600160a01b0316610200858101919091528301518285015291015115156102408301520390f35b346101a15760403660031901126101a15761090d611d6a565b60243590811515908183036101a15733156109a4576001600160a01b031691821561098b5761095d90335f52600560205260405f20845f5260205260405f209060ff801983541691151516179055565b6040519081527f17307eab39ab6107e8899845ad3d59bd9653f200f220920489ca2b5937696c3160203392a3005b604051630b61174360e31b815260048101849052602490fd5b60405163a9fbf51f60e01b81525f6004820152602490fd5b346101a1575f3660031901126101a1576040515f600182600154926109e084611e92565b92838352602094856001821691825f14610a7a575050600114610a1f575b50610a0b92500383611dcd565b61044f604051928284938452830190611d2c565b84915060015f527fb10e2d527612073b26eecdfd717e6a320cf44b4afac2b0732d9fcbe2b7fa0cf6905f915b858310610a62575050610a0b9350820101856109fe565b80548389018501528794508693909201918101610a4b565b60ff191685820152610a0b95151560051b85010192508791506109fe9050565b346101a1575f3660031901126101a1576007546040516001600160a01b039091168152602090f35b346101a1575f3660031901126101a157610ada612190565b600780546001600160a01b031981169091555f906001600160a01b03167f8be0079c531659141344cd1fd0a4f28419497f9722a3daafe3b4186f6b6457e08280a3005b346101a15760203660031901126101a1576001600160a01b03610b3e611d6a565b168015610b5b575f526003602052602060405f2054604051908152f35b6040516322718ad960e21b81525f6004820152602490fd5b346101a15760203660031901126101a1576004355f52600960205260405f20610b9b81611eca565b610ba760018301611eca565b60e052610bb660028301611eca565b61010052610bc660038301611eca565b610bd260048401611eca565b600584015490600685015460078601546008870154600988015490600a89015492600b8a015494600c8b015496600d8c01610c0c90611eca565b99610c19600e8e01611eca565b9b8d600160a01b60019003600f8201541660a052601001549d6011015460ff1660805260405160c0526102408060c0515260c05101610c5791611d2c565b60c051810360c0516020015260e05190610c7091611d2c565b60c051810360c051604001526101005190610c8a91611d2c565b60c051810360c05160600152610c9f91611d2c565b60c051810360c05160800152610cb491611d2c565b9760c05160a0015260c05160c0015260c05160e0015260c051610100015260c051610120015260c051610140015260c051610160015260c051610180015260c051810360c0516101a00152610d0891611d2c565b60c051810360c0516101c00152610d1e91611d2c565b9060a05160c0516101e0015260c0516102000152608051151560c051610220015260c051900360c051f35b346101a15760203660031901126101a1576020610d67600435612156565b6040516001600160a01b039091168152f35b346101a1576104be610d8a36611e5d565b9060405192610d9884611db2565b5f84526104b8838383611f95565b346101a1576104be610db736611e5d565b91611f95565b346101a1575f3660031901126101a1576020600854604051908152f35b346101a1576101c03660031901126101a1576004356001600160401b0381116101a157610e0b903690600401611e3f565b6024356001600160401b0381116101a157610e2a903690600401611e3f565b6044356001600160401b0381116101a157610e49903690600401611e3f565b906064356001600160401b0381116101a157610e69903690600401611e3f565b906084356001600160401b0381116101a157610e89903690600401611e3f565b91610184356001600160401b0381116101a157610eaa903690600401611e3f565b926101a4356001600160401b0381116101a157610ecb903690600401611e3f565b9160085495604051610edc81611db2565b5f81523315611acb575f888152600260205260409020546001600160a01b031680611a98575b335f52600360205260405f2060018154019055885f52600260205260405f20336001600160601b0360a01b8254161790558833827fddf252ad1be2c89b69c2b068fc378daa952ba7f163c4a11628f55a4df523b3ef5f80a4611a8057333b611965575b506008545f1981146119515760010160085560405194610f8486611d96565b888652602086015260408501526060840152608083015260a43560a083015260c43560c08301524260e083015260e43561010083015261010435610120830152610124356101408301526101443561016083015261016435610180830152826101a08301526101c0820152336101e0820152426102008201526001610220820152825f52600960205260405f209080518051906001600160401b0382116113cb5781906110318554611e92565b601f8111611904575b50602090601f831160011461189c575f92611891575b50508160011b915f199060031b1c19161782555b60208101518051906001600160401b0382116113cb5781906110896001860154611e92565b601f8111611841575b50602090601f83116001146117d3575f926117c8575b50508160011b915f199060031b1c19161760018301555b60408101518051906001600160401b0382116113cb5781906110e46002860154611e92565b601f8111611778575b50602090601f831160011461170a575f926116ff575b50508160011b915f199060031b1c19161760028301555b60608101518051906001600160401b0382116113cb57819061113f6003860154611e92565b601f81116116af575b50602090601f8311600114611641575f92611636575b50508160011b915f199060031b1c19161760038301555b60808101518051906001600160401b0382116113cb57819061119a6004860154611e92565b601f81116115e6575b50602090601f8311600114611578575f9261156d575b50508160011b915f199060031b1c19161760048301555b60a0810151600583015560c0810151600683015560e0810151600783015561010081015160088301556101208101516009830155610140810151600a830155610160810151600b830155610180810151600c8301556101a08101518051906001600160401b0382116113cb57819061124b600d860154611e92565b601f811161151d575b50602090601f83116001146114af575f926114a4575b50508160011b915f199060031b1c191617600d8301555b6101c08101518051906001600160401b0382116113cb576112a5600e850154611e92565b601f8111611460575b50602090601f83116001146113ea5792826011936102209361132e97965f926113df575b50508160011b915f199060031b1c191617600e8501555b600f840160018060a01b036101e0830151166001600160601b0360a01b82541617905561020081015160108501550151151591019060ff801983541691151516179055565b335f52600a60205260405f2092835493680100000000000000008510156113cb576113b28492611387877f0372de3fa001ec655fcb2f8096e13cb1f68d1b8b9bb9d2674fc7d880de7e804594600160209a018155611f6c565b81549060031b9086821b915f19901b19161790556113c0604051928392604084526040840190611d2c565b828103898401523396611d2c565b0390a3604051908152f35b634e487b7160e01b5f52604160045260245ffd5b015190508a806112d2565b90600e85015f5260205f20915f5b601f19851681106114485750836102209361132e979693600193601197601f19811610611430575b505050811b01600e8501556112e9565b01515f1960f88460031b161c191690558a8080611420565b919260206001819286850151815501940192016113f8565b600e85015f5260205f20601f840160051c81016020851061149d575b601f830160051c820181106114925750506112ae565b5f815560010161147c565b508061147c565b01519050878061126a565b9250600d85015f5260205f20905f935b601f1984168510611502576001945083601f198116106114ea575b505050811b01600d830155611281565b01515f1960f88460031b161c191690558780806114da565b818101518355602094850194600190930192909101906114bf565b909150600d85015f5260205f20601f840160051c810160208510611566575b90849392915b601f830160051c82018110611558575050611254565b5f8155859450600101611542565b508061153c565b0151905087806111b9565b9250600485015f5260205f20905f935b601f19841685106115cb576001945083601f198116106115b3575b505050811b0160048301556111d0565b01515f1960f88460031b161c191690558780806115a3565b81810151835560209485019460019093019290910190611588565b909150600485015f5260205f20601f840160051c81016020851061162f575b90849392915b601f830160051c820181106116215750506111a3565b5f815585945060010161160b565b5080611605565b01519050878061115e565b9250600385015f5260205f20905f935b601f1984168510611694576001945083601f1981161061167c575b505050811b016003830155611175565b01515f1960f88460031b161c1916905587808061166c565b81810151835560209485019460019093019290910190611651565b909150600385015f5260205f20601f840160051c8101602085106116f8575b90849392915b601f830160051c820181106116ea575050611148565b5f81558594506001016116d4565b50806116ce565b015190508780611103565b9250600285015f5260205f20905f935b601f198416851061175d576001945083601f19811610611745575b505050811b01600283015561111a565b01515f1960f88460031b161c19169055878080611735565b8181015183556020948501946001909301929091019061171a565b909150600285015f5260205f20601f840160051c8101602085106117c1575b90849392915b601f830160051c820181106117b35750506110ed565b5f815585945060010161179d565b5080611797565b0151905087806110a8565b9250600185015f5260205f20905f935b601f1984168510611826576001945083601f1981161061180e575b505050811b0160018301556110bf565b01515f1960f88460031b161c191690558780806117fe565b818101518355602094850194600190930192909101906117e3565b909150600185015f5260205f20601f840160051c81016020851061188a575b90849392915b601f830160051c8201811061187c575050611092565b5f8155859450600101611866565b5080611860565b015190508780611050565b9250845f5260205f20905f935b601f19841685106118e9576001945083601f198116106118d1575b505050811b018255611064565b01515f1960f88460031b161c191690558780806118c4565b818101518355602094850194600190930192909101906118a9565b909150845f5260205f20601f840160051c81016020851061194a575b90849392915b601f830160051c8201811061193c57505061103a565b5f8155859450600101611926565b5080611920565b634e487b7160e01b5f52601160045260245ffd5b602061199f9160405180938192630a85bd0160e11b83523360048401525f60248401528c6044840152608060648401526084830190611d2c565b03815f335af15f9181611a3b575b50611a06573d156119ff573d6119c281611dee565b906119d06040519283611dcd565b81523d5f602083013e5b805190816119fa57604051633250574960e11b8152336004820152602490fd5b602001fd5b60606119da565b6001600160e01b03191663757a42ff60e11b01611a235788610f65565b604051633250574960e11b8152336004820152602490fd5b9091506020813d602011611a78575b81611a5760209383611dcd565b810103126101a157516001600160e01b0319811681036101a157908a6119ad565b3d9150611a4a565b6040516339e3563760e11b81525f6004820152602490fd5b5f89815260046020526040902080546001600160a01b0319169055805f52600360205260405f205f198154019055610f02565b604051633250574960e11b81525f6004820152602490fd5b346101a15760403660031901126101a157611afc611d6a565b602435611b0881612156565b33151580611bb1575b80611b88575b611b70576001600160a01b039283169282918491167f8c5be1e5ebec7d5bd14f71427d1e84f3dd0314c0f7b2291e5b200ac8c7c3b9255f80a45f90815260046020526040902080546001600160a01b0319169091179055005b60405163a9fbf51f60e01b8152336004820152602490fd5b5060018060a01b0381165f52600560205260405f20335f5260205260ff60405f20541615611b17565b506001600160a01b038116331415611b11565b346101a15760203660031901126101a157600435611be181612156565b505f526004602052602060018060a01b0360405f205416604051908152f35b346101a1575f3660031901126101a1576040515f80549082611c2183611e92565b91828252602093600190856001821691825f14610a7a575050600114611c4e5750610a0b92500383611dcd565b5f808052859250907f290decd9548b62a8d60345a988386fc84ba6bc95484008f6362f93160ef3e5635b858310611c8f575050610a0b9350820101856109fe565b80548389018501528794508693909201918101611c78565b346101a15760203660031901126101a1576004359063ffffffff60e01b82168092036101a157602091632483248360e11b8114908115611ce9575b5015158152f35b6380ac58cd60e01b811491508115611d1b575b8115611d0a575b5083611ce2565b6301ffc9a760e01b14905083611d03565b635b5e139f60e01b81149150611cfc565b91908251928382525f5b848110611d56575050825f602080949584010152601f8019910116010190565b602081830181015184830182015201611d36565b600435906001600160a01b03821682036101a157565b602435906001600160a01b03821682036101a157565b61024081019081106001600160401b038211176113cb57604052565b602081019081106001600160401b038211176113cb57604052565b90601f801991011681019081106001600160401b038211176113cb57604052565b6001600160401b0381116113cb57601f01601f191660200190565b929192611e1582611dee565b91611e236040519384611dcd565b8294818452818301116101a1578281602093845f960137010152565b9080601f830112156101a157816020611e5a93359101611e09565b90565b60609060031901126101a1576001600160a01b039060043582811681036101a1579160243590811681036101a1579060443590565b90600182811c92168015611ec0575b6020831014611eac57565b634e487b7160e01b5f52602260045260245ffd5b91607f1691611ea1565b9060405191825f8254611edc81611e92565b908184526020946001916001811690815f14611f4a5750600114611f0c575b505050611f0a92500383611dcd565b565b5f90815285812095935091905b818310611f32575050611f0a93508201015f8080611efb565b85548884018501529485019487945091830191611f19565b92505050611f0a94925060ff191682840152151560051b8201015f8080611efb565b8054821015611f81575f5260205f2001905f90565b634e487b7160e01b5f52603260045260245ffd5b6001600160a01b039182169290918315611acb57815f52602092600284528260409583875f2054169533151580612081575b5060029087612050575b825f5260038152885f2060018154019055835f5252865f20816001600160601b0360a01b825416179055857fddf252ad1be2c89b69c2b068fc378daa952ba7f163c4a11628f55a4df523b3ef5f80a4169283830361202f5750505050565b6064945051926364283d7b60e01b8452600484015260248301526044820152fd5b5f84815260046020526040812080546001600160a01b03191690558881526003825289902080545f19019055611fd1565b91925090806120d2575b15612099579084915f611fc7565b8685876120b6576024915190637e27328960e01b82526004820152fd5b604491519063177e802f60e01b82523360048301526024820152fd5b5033861480156120f7575b8061208b5750845f52600481523384885f2054161461208b565b50855f5260058152865f20335f52815260ff875f2054166120dd565b1561211a57565b60405162461bcd60e51b8152602060048201526014602482015273151bdad95b88191bd95cc81b9bdd08195e1a5cdd60621b6044820152606490fd5b5f818152600260205260409020546001600160a01b0316908115612178575090565b60249060405190637e27328960e01b82526004820152fd5b6007546001600160a01b031633036121a457565b60405163118cdaa760e01b8152336004820152602490fd5b9293909193843b6121cf575b5050505050565b604051630a85bd0160e11b8082526001600160a01b039586166004830152938516602482015260448101919091526080606482015260209594909316939290859082908190612222906084830190611d2c565b03815f885af15f91816122c6575b5061228f575050503d5f14612287573d9161224a83611dee565b926122586040519485611dcd565b83523d5f8285013e5b8251928361228257604051633250574960e11b815260048101849052602490fd5b019050fd5b606091612261565b9193506001600160e01b0319909116036122ae57505f808080806121c8565b60249060405190633250574960e11b82526004820152fd5b9091508581813d83116122ff575b6122de8183611dcd565b810103126101a157516001600160e01b0319811681036101a157905f612230565b503d6122d456fea26469706673582212203c94cf35a08c6c3490ff40b190f7580bfa5a0656c70ac8e6b6a5b89d29018fbb64736f6c63430008180033",
  "linkReferences": {},
  "deployedLinkReferences": {}
}