{"contracts/NFTMarketplace.sol":{"NFTMarketplace":{"abi":[{"inputs":[],"stateMutability":"nonpayable","type":"constructor"},{"inputs":[{"internalType":"address","name":"owner","type":"address"}],"name":"OwnableInvalidOwner","type":"error"},{"inputs":[{"internalType":"address","name":"account","type":"address"}],"name":"OwnableUnauthorizedAccount","type":"error"},{"inputs":[],"name":"ReentrancyGuardReentrantCall","type":"error"},{"anonymous":false,"inputs":[{"indexed":false,"internalType":"uint256","name":"oldFee","type":"uint256"},{"indexed":false,"internalType":"uint256","name":"newFee","type":"uint256"}],"name":"FeeUpdated","type":"event"},{"anonymous":false,"inputs":[{"indexed":true,"internalType":"uint256","name":"listingId","type":"uint256"},{"indexed":true,"internalType":"address","name":"nftContract","type":"address"},{"indexed":true,"internalType":"uint256","name":"tokenId","type":"uint256"},{"indexed":false,"internalType":"address","name":"seller","type":"address"},{"indexed":false,"internalType":"uint256","name":"price","type":"uint256"}],"name":"Listed","type":"event"},{"anonymous":false,"inputs":[{"indexed":true,"internalType":"uint256","name":"listingId","type":"uint256"},{"indexed":true,"internalType":"address","name":"seller","type":"address"}],"name":"ListingCancelled","type":"event"},{"anonymous":false,"inputs":[{"indexed":true,"internalType":"address","name":"previousOwner","type":"address"},{"indexed":true,"internalType":"address","name":"newOwner","type":"address"}],"name":"OwnershipTransferred","type":"event"},{"anonymous":false,"inputs":[{"indexed":true,"internalType":"uint256","name":"listingId","type":"uint256"},{"indexed":false,"internalType":"uint256","name":"oldPrice","type":"uint256"},{"indexed":false,"internalType":"uint256","name":"newPrice","type":"uint256"}],"name":"PriceUpdated","type":"event"},{"anonymous":false,"inputs":[{"indexed":true,"internalType":"uint256","name":"listingId","type":"uint256"},{"indexed":true,"internalType":"address","name":"nftContract","type":"address"},{"indexed":true,"internalType":"uint256","name":"tokenId","type":"uint256"},{"indexed":false,"internalType":"address","name":"seller","type":"address"},{"indexed":false,"internalType":"address","name":"buyer","type":"address"},{"indexed":false,"internalType":"uint256","name":"price","type":"uint256"}],"name":"Sold","type":"event"},{"inputs":[],"name":"MAX_FEE","outputs":[{"internalType":"uint256","name":"","type":"uint256"}],"stateMutability":"view","type":"function"},{"inputs":[{"internalType":"uint256","name":"_listingId","type":"uint256"}],"name":"buyNFT","outputs":[],"stateMutability":"payable","type":"function"},{"inputs":[{"internalType":"uint256","name":"_listingId","type":"uint256"}],"name":"cancelListing","outputs":[],"stateMutability":"nonpayable","type":"function"},{"inputs":[],"name":"getActiveListings","outputs":[{"components":[{"internalType":"uint256","name":"tokenId","type":"uint256"},{"internalType":"address","name":"nftContract","type":"address"},{"internalType":"address","name":"seller","type":"address"},{"internalType":"uint256","name":"price","type":"uint256"},{"internalType":"bool","name":"active","type":"bool"},{"internalType":"uint256","name":"createdAt","type":"uint256"}],"internalType":"struct NFTMarketplace.Listing[]","name":"","type":"tuple[]"}],"stateMutability":"view","type":"function"},{"inputs":[{"internalType":"address","name":"_nftContract","type":"address"},{"internalType":"uint256","name":"_tokenId","type":"uint256"}],"name":"getListingByToken","outputs":[{"components":[{"internalType":"uint256","name":"tokenId","type":"uint256"},{"internalType":"address","name":"nftContract","type":"address"},{"internalType":"address","name":"seller","type":"address"},{"internalType":"uint256","name":"price","type":"uint256"},{"internalType":"bool","name":"active","type":"bool"},{"internalType":"uint256","name":"createdAt","type":"uint256"}],"internalType":"struct NFTMarketplace.Listing","name":"","type":"tuple"}],"stateMutability":"view","type":"function"},{"inputs":[{"internalType":"address","name":"_seller","type":"address"}],"name":"getListingsBySeller","outputs":[{"components":[{"internalType":"uint256","name":"tokenId","type":"uint256"},{"internalType":"address","name":"nftContract","type":"address"},{"internalType":"address","name":"seller","type":"address"},{"internalType":"uint256","name":"price","type":"uint256"},{"internalType":"bool","name":"active","type":"bool"},{"internalType":"uint256","name":"createdAt","type":"uint256"}],"internalType":"struct NFTMarketplace.Listing[]","name":"","type":"tuple[]"}],"stateMutability":"view","type":"function"},{"inputs":[{"internalType":"address","name":"_nftContract","type":"address"},{"internalType":"uint256","name":"_tokenId","type":"uint256"},{"internalType":"uint256","name":"_price","type":"uint256"}],"name":"listNFT","outputs":[{"internalType":"uint256","name":"","type":"uint256"}],"stateMutability":"nonpayable","type":"function"},{"inputs":[{"internalType":"uint256","name":"","type":"uint256"}],"name":"listings","outputs":[{"internalType":"uint256","name":"tokenId","type":"uint256"},{"internalType":"address","name":"nftContract","type":"address"},{"internalType":"address","name":"seller","type":"address"},{"internalType":"uint256","name":"price","type":"uint256"},{"internalType":"bool","name":"active","type":"bool"},{"internalType":"uint256","name":"createdAt","type":"uint256"}],"stateMutability":"view","type":"function"},{"inputs":[],"name":"marketplaceFee","outputs":[{"internalType":"uint256","name":"","type":"uint256"}],"stateMutability":"view","type":"function"},{"inputs":[],"name":"owner","outputs":[{"internalType":"address","name":"","type":"address"}],"stateMutability":"view","type":"function"},{"inputs":[],"name":"renounceOwnership","outputs":[],"stateMutability":"nonpayable","type":"function"},{"inputs":[{"internalType":"address","name":"","type":"address"},{"internalType":"uint256","name":"","type":"uint256"}],"name":"sellerListings","outputs":[{"internalType":"uint256","name":"","type":"uint256"}],"stateMutability":"view","type":"function"},{"inputs":[{"internalType":"address","name":"","type":"address"},{"internalType":"uint256","name":"","type":"uint256"}],"name":"tokenToListing","outputs":[{"internalType":"uint256","name":"","type":"uint256"}],"stateMutability":"view","type":"function"},{"inputs":[],"name":"totalListings","outputs":[{"internalType":"uint256","name":"","type":"uint256"}],"stateMutability":"view","type":"function"},{"inputs":[{"internalType":"address","name":"newOwner","type":"address"}],"name":"transferOwnership","outputs":[],"stateMutability":"nonpayable","type":"function"},{"inputs":[{"internalType":"uint256","name":"_newFee","type":"uint256"}],"name":"updateFee","outputs":[],"stateMutability":"nonpayable","type":"function"},{"inputs":[{"internalType":"uint256","name":"_listingId","type":"uint256"},{"internalType":"uint256","name":"_newPrice","type":"uint256"}],"name":"updatePrice","outputs":[],"stateMutability":"nonpayable","type":"function"},{"inputs":[],"name":"withdraw","outputs":[],"stateMutability":"nonpayable","type":"function"}],"evm":{"bytecode":{"linkReferences":{},"object":"608080604052346100a15760017f9b779b17422d0df92223018b32b4d1fa46e071723d6817e2486d003becc55f0055331561008c575f8054336001600160a01b03198216811783556040519290916001600160a01b0316907f8be0079c531659141344cd1fd0a4f28419497f9722a3daafe3b4186f6b6457e09080a360fa6005556114cc90816100a68239f35b631e4fbdf760e01b81525f6004820152602490fd5b5f80fdfe60406080815260049081361015610014575f80fd5b5f915f3560e01c8063054564f0146110d5578063248d9aa314610ff3578063305a67a814610e985780633ccfd60b14610ddd57806351ed828814610ac95780636a16696414610aaa5780636f7b435214610a69578063715018a614610a1057806382367b2d1461093857806387c35bc0146108165780638da5cb5b146107ee5780639012c4a81461075c578063ad05f1b414610338578063bc063e1a14610317578063c78b616c146102fa578063d8cba251146101e1578063de74e57b146101745763f2fde38b146100e4575f80fd5b34610170576020366003190112610170576100fd61112c565b9061010661144b565b6001600160a01b0391821692831561015a5750505f54826bffffffffffffffffffffffff60a01b8216175f55167f8be0079c531659141344cd1fd0a4f28419497f9722a3daafe3b4186f6b6457e05f80a380f35b51631e4fbdf760e01b8152908101849052602490fd5b8280fd5b509034610170576020366003190112610170578060c0938335815260016020522080549260018060a01b0392836001840154169360028401541690600560ff60038601549486015416940154948151968752602087015285015260608401521515608083015260a0820152f35b5082346102f757602090816003193601126102f7576001600160a01b03918261020861112c565b16825260039360038252858320948651808785829954938481520190875285872092875b878282106102e15750505061024392500387611235565b61024d865161139a565b94845b87518110156102d057806102666001928a6113e9565b5187528180875260058b8920858d519361027f856111f1565b825485528201541689840152856002820154168d84015286810154606084015260ff888201541615156080840152015460a08201526102be828a6113e9565b526102c981896113e9565b5001610250565b8851806102dd898261116b565b0390f35b855484526001958601958c95509301920161022c565b80fd5b503461017057826003193601126101705760209250549051908152f35b505034610334578160031936011261033457602090516103e88152f35b5080fd5b509190346103345760603660031901126103345761035461112c565b916024938435916044359061036761141c565b610372821515611328565b84516331a9108f60e11b81528084018590526020976001600160a01b03978816949189818381895afa9081156106c657849161073f575b50883391160361070a57865163e985e9c560e01b8152338382015230828201528981604481895afa9081156106c65784916106d0575b508015610667575b1561062657848352600289528683208684528952868320541580156105fd575b156105c6576104168254611374565b978883556005848a878d8c80519661042d886111f1565b8d8852828801918d83526001818a019433865260608b0196875260808b019782895260a08c0199428b5252528b20975188558060018901925116916bffffffffffffffffffffffff60a01b928382541617905560028801925116908254161790555160038501558584019051151560ff8019835416911617905551910155848352600289528683208684528952878784205533835260038952868320805491680100000000000000008310156105b55750906104ee91600182018155611142565b81549060031b9089821b915f19901b1916179055833b156103345785516323b872dd60e01b8152339181019182523060208301526040820186905290829082908190606001038183885af180156105ab579186918893610590575b50507f9791797c382de5e73cc7c32c32ffd8304e9b9cc1f6afd967990c1edd0729dba9919281519033825289820152a460015f805160206114778339815191525551908152f35b81935061059e919250611221565b6102f75784818792610549565b86513d84823e3d90fd5b634e487b7160e01b85526041845284fd5b865162461bcd60e51b81529182018990526012908201527113919508185b1c9958591e481b1a5cdd195960721b6044820152606490fd5b508483526002895286832086845289528683205483526001895260ff8288852001541615610407565b865162461bcd60e51b815291820189905281018890527f4e4654206e6f7420617070726f76656420666f72206d61726b6574706c6163656044820152606490fd5b50865163020604bf60e21b815282810187905289818381895afa9081156106c6578491610699575b50881630146103e7565b6106b991508a3d8c116106bf575b6106b18183611235565b8101906113fd565b5f61068f565b503d6106a7565b88513d86823e3d90fd5b90508981813d8311610703575b6106e78183611235565b810103126106ff575180151581036106ff575f6103df565b8380fd5b503d6106dd565b865162461bcd60e51b81529182018990526010908201526f139bdd081bdddb995c881bd98813919560821b6044820152606490fd5b61075691508a3d8c116106bf576106b18183611235565b5f6103a9565b50346101705760203660031901126101705780359061077961144b565b6103e882116107bc5750907f528d9479e9f9889a87a3c30c7f7ba537e5e59c4c85a37733b16e57c62df6130291600554908060055582519182526020820152a180f35b606490602084519162461bcd60e51b8352820152600c60248201526b08ccaca40e8dede40d0d2ced60a31b6044820152fd5b505034610334578160031936011261033457905490516001600160a01b039091168152602090f35b5090346101705782600319360112610170578154928060015b858111156108ff57506108419061139a565b928160015b8681111561085b578451806102dd888261116b565b80825260206001815285832060ff858201541680610885575b50505061088090611374565b610846565b9160056108809497926108f6948a519361089e856111f1565b8254855260018301546001600160a01b03908116918601919091526002830154168b8501526003820154606085015215156080840152015460a08201526108e5828a6113e9565b526108f081896113e9565b50611374565b93905f80610874565b808352600160205260ff85858520015416610923575b61091e90611374565b61082f565b9061093061091e91611374565b919050610915565b5090346101705780600319360112610170578135916024359061095961141c565b83855260016020528285209061097460ff8284015416611287565b60028201546001600160a01b031633036109e057509060037f15819dd2fd9f6418b142e798d08a18d0bf06ea368f4480b7b0d3f75bd966bc4893926109ba831515611328565b0190808254925582519182526020820152a260015f805160206114778339815191525580f35b606490602085519162461bcd60e51b8352820152600a6024820152692737ba1039b2b63632b960b11b6044820152fd5b83346102f757806003193601126102f757610a2961144b565b5f80546001600160a01b0319811682556001600160a01b03167f8be0079c531659141344cd1fd0a4f28419497f9722a3daafe3b4186f6b6457e08280a380f35b50503461033457806003193601126103345760209181906001600160a01b03610a9061112c565b168152600284528181206024358252845220549051908152f35b5050346103345781600319360112610334576020906005549051908152f35b50602091826003193601126106ff57813590610ae361141c565b818552600184528085209280840194855490610b0160ff8316611287565b6003860192835491823410610da457600288019860018060a01b0394858b54163314610d615760ff19169055600554808402908482041484151715610d4e57612710610b4f91048094611307565b928a60018a0194868654168b5490803b156106ff578a516323b872dd60e01b8152308882019081523360208201526040810193909352918491839182908490829060600103925af18015610d44578d84928a92610d2b575b5092829391839254165af1610bba6112c8565b5015610ce857808b91610c91575b508554803411610c3a575b5050915496549754935494519383166001600160a01b03168452505033602083015260408201929092529216917fa2e6e4d40c14021b8ba9fe827b3d6d467185016a377c5ab1aab7a5dd9619ac2490606090a460015f805160206114778339815191525580f35b8180610c47819334611307565b335af1610c526112c8565b5015610c5f578981610bd3565b855162461bcd60e51b815291820152600d60248201526c1499599d5b990819985a5b1959609a1b604482015260649150fd5b81808092888254165af1610ca36112c8565b5015610cb057895f610bc8565b855162461bcd60e51b8152918201526013602482015272119959481d1c985b9cd9995c8819985a5b1959606a1b604482015260649150fd5b865162461bcd60e51b8152808401839052601860248201527f5061796d656e7420746f2073656c6c6572206661696c656400000000000000006044820152606490fd5b9050610d379150611221565b6103345781878d5f610ba7565b8a513d85823e3d90fd5b634e487b7160e01b8b526011835260248bfd5b875162461bcd60e51b8152808501849052601760248201527f43616e6e6f742062757920796f7572206f776e204e46540000000000000000006044820152606490fd5b855162461bcd60e51b8152918201526014602482015273125b9cdd59999a58da595b9d081c185e5b595b9d60621b604482015260649150fd5b509034610170578260031936011261017057610df761144b565b478015610e5c57835484918291829182916001600160a01b03165af1610e1b6112c8565b5015610e25578280f35b906020606492519162461bcd60e51b8352820152601160248201527015da5d1a191c985dd85b0819985a5b1959607a1b6044820152fd5b815162461bcd60e51b815260208185015260166024820152754e6f2062616c616e636520746f20776974686472617760501b6044820152606490fd5b509034610faf576020366003190112610faf57813591610eb661141c565b825f526001602052815f209080820192835491610ed560ff8416611287565b600284019360018060a01b039586865416948533148015610fe7575b15610fb35760ff1916905560018101549054908616803b15610faf5783516323b872dd60e01b8152309381019384526001600160a01b03909516602084015260408301919091525f9184919082908490829060600103925af1908115610fa65750610f93575b505416907f8e25282255ab31897df2b0456bb993ac7f84d376861aefd84901d2d63a7428a28380a360015f805160206114778339815191525580f35b610f9e919450611221565b5f925f610f57565b513d5f823e3d90fd5b5f80fd5b845162461bcd60e51b8152602081860152600e60248201526d139bdd08185d5d1a1bdc9a5e995960921b6044820152606490fd5b50875f54163314610ef1565b5034610faf5781600319360112610faf576110d360c092600561101461112c565b9361101d611257565b5060018060a01b038095165f526002602052825f206024355f52602052825f20545f52600160205260ff835f2091845196611057886111f1565b8354885280600185015416602089015260028401541685880152600383015460608801528201541615156080860152015460a084015251809260a08091805184526020810151600180841b0380911660208601526040820151166040850152606081015160608501526080810151151560808501520151910152565bf35b8234610faf5780600319360112610faf576110ee61112c565b6001600160a01b03165f90815260036020528190208054602435929190831015610faf5760209261111e91611142565b90549060031b1c9051908152f35b600435906001600160a01b0382168203610faf57565b8054821015611157575f5260205f2001905f90565b634e487b7160e01b5f52603260045260245ffd5b60209060206040818301928281528551809452019301915f5b828110611192575050505090565b909192938260c0826111e5600194895160a08091805184526020810151600180841b0380911660208601526040820151166040850152606081015160608501526080810151151560808501520151910152565b01950193929101611184565b60c0810190811067ffffffffffffffff82111761120d57604052565b634e487b7160e01b5f52604160045260245ffd5b67ffffffffffffffff811161120d57604052565b90601f8019910116810190811067ffffffffffffffff82111761120d57604052565b60405190611264826111f1565b5f60a0838281528260208201528260408201528260608201528260808201520152565b1561128e57565b60405162461bcd60e51b81526020600482015260126024820152714c697374696e67206e6f742061637469766560701b6044820152606490fd5b3d15611302573d9067ffffffffffffffff821161120d57604051916112f7601f8201601f191660200184611235565b82523d5f602084013e565b606090565b9190820391821161131457565b634e487b7160e01b5f52601160045260245ffd5b1561132f57565b60405162461bcd60e51b815260206004820152601c60248201527f5072696365206d7573742062652067726561746572207468616e2030000000006044820152606490fd5b5f1981146113145760010190565b67ffffffffffffffff811161120d5760051b60200190565b906113a482611382565b6113b16040519182611235565b82815280926113c2601f1991611382565b01905f5b8281106113d257505050565b6020906113dd611257565b828285010152016113c6565b80518210156111575760209160051b010190565b90816020910312610faf57516001600160a01b0381168103610faf5790565b5f8051602061147783398151915260028154146114395760029055565b604051633ee5aeb560e01b8152600490fd5b5f546001600160a01b0316330361145e57565b60405163118cdaa760e01b8152336004820152602490fdfe9b779b17422d0df92223018b32b4d1fa46e071723d6817e2486d003becc55f00a2646970667358221220da16aa527c6d85bf8bc55adb8a04ec0391362988bd38c06c934e770fca64a37d64736f6c63430008180033","opcodes":"PUSH1 0x80 DUP1 PUSH1 0x40 MSTORE CALLVALUE PUSH2 0xA1 JUMPI PUSH1 0x1 PUSH32 0x9B779B17422D0DF92223018B32B4D1FA46E071723D6817E2486D003BECC55F00 SSTORE CALLER ISZERO PUSH2 0x8C JUMPI PUSH0 DUP1 SLOAD CALLER PUSH1 0x1 PUSH1 0x1 PUSH1 0xA0 SHL SUB NOT DUP3 AND DUP2 OR DUP4 SSTORE PUSH1 0x40 MLOAD SWAP3 SWAP1 SWAP2 PUSH1 0x1 PUSH1 0x1 PUSH1 0xA0 SHL SUB AND SWAP1 PUSH32 0x8BE0079C531659141344CD1FD0A4F28419497F9722A3DAAFE3B4186F6B6457E0 SWAP1 DUP1 LOG3 PUSH1 0xFA PUSH1 0x5 SSTORE PUSH2 0x14CC SWAP1 DUP2 PUSH2 0xA6 DUP3 CODECOPY RETURN JUMPDEST PUSH4 0x1E4FBDF7 PUSH1 0xE0 SHL DUP2 MSTORE PUSH0 PUSH1 0x4 DUP3 ADD MSTORE PUSH1 0x24 SWAP1 REVERT JUMPDEST PUSH0 DUP1 REVERT INVALID PUSH1 0x40 PUSH1 0x80 DUP2 MSTORE PUSH1 0x4 SWAP1 DUP2 CALLDATASIZE LT ISZERO PUSH2 0x14 JUMPI PUSH0 DUP1 REVERT JUMPDEST PUSH0 SWAP2 PUSH0 CALLDATALOAD PUSH1 0xE0 SHR DUP1 PUSH4 0x54564F0 EQ PUSH2 0x10D5 JUMPI DUP1 PUSH4 0x248D9AA3 EQ PUSH2 0xFF3 JUMPI DUP1 PUSH4 0x305A67A8 EQ PUSH2 0xE98 JUMPI DUP1 PUSH4 0x3CCFD60B EQ PUSH2 0xDDD JUMPI DUP1 PUSH4 0x51ED8288 EQ PUSH2 0xAC9 JUMPI DUP1 PUSH4 0x6A166964 EQ PUSH2 0xAAA JUMPI DUP1 PUSH4 0x6F7B4352 EQ PUSH2 0xA69 JUMPI DUP1 PUSH4 0x715018A6 EQ PUSH2 0xA10 JUMPI DUP1 PUSH4 0x82367B2D EQ PUSH2 0x938 JUMPI DUP1 PUSH4 0x87C35BC0 EQ PUSH2 0x816 JUMPI DUP1 PUSH4 0x8DA5CB5B EQ PUSH2 0x7EE JUMPI DUP1 PUSH4 0x9012C4A8 EQ PUSH2 0x75C JUMPI DUP1 PUSH4 0xAD05F1B4 EQ PUSH2 0x338 JUMPI DUP1 PUSH4 0xBC063E1A EQ PUSH2 0x317 JUMPI DUP1 PUSH4 0xC78B616C EQ PUSH2 0x2FA JUMPI DUP1 PUSH4 0xD8CBA251 EQ PUSH2 0x1E1 JUMPI DUP1 PUSH4 0xDE74E57B EQ PUSH2 0x174 JUMPI PUSH4 0xF2FDE38B EQ PUSH2 0xE4 JUMPI PUSH0 DUP1 REVERT JUMPDEST CALLVALUE PUSH2 0x170 JUMPI PUSH1 0x20 CALLDATASIZE PUSH1 0x3 NOT ADD SLT PUSH2 0x170 JUMPI PUSH2 0xFD PUSH2 0x112C JUMP JUMPDEST SWAP1 PUSH2 0x106 PUSH2 0x144B JUMP JUMPDEST PUSH1 0x1 PUSH1 0x1 PUSH1 0xA0 SHL SUB SWAP2 DUP3 AND SWAP3 DUP4 ISZERO PUSH2 0x15A JUMPI POP POP PUSH0 SLOAD DUP3 PUSH12 0xFFFFFFFFFFFFFFFFFFFFFFFF PUSH1 0xA0 SHL DUP3 AND OR PUSH0 SSTORE AND PUSH32 0x8BE0079C531659141344CD1FD0A4F28419497F9722A3DAAFE3B4186F6B6457E0 PUSH0 DUP1 LOG3 DUP1 RETURN JUMPDEST MLOAD PUSH4 0x1E4FBDF7 PUSH1 0xE0 SHL DUP2 MSTORE SWAP1 DUP2 ADD DUP5 SWAP1 MSTORE PUSH1 0x24 SWAP1 REVERT JUMPDEST DUP3 DUP1 REVERT JUMPDEST POP SWAP1 CALLVALUE PUSH2 0x170 JUMPI PUSH1 0x20 CALLDATASIZE PUSH1 0x3 NOT ADD SLT PUSH2 0x170 JUMPI DUP1 PUSH1 0xC0 SWAP4 DUP4 CALLDATALOAD DUP2 MSTORE PUSH1 0x1 PUSH1 0x20 MSTORE KECCAK256 DUP1 SLOAD SWAP3 PUSH1 0x1 DUP1 PUSH1 0xA0 SHL SUB SWAP3 DUP4 PUSH1 0x1 DUP5 ADD SLOAD AND SWAP4 PUSH1 0x2 DUP5 ADD SLOAD AND SWAP1 PUSH1 0x5 PUSH1 0xFF PUSH1 0x3 DUP7 ADD SLOAD SWAP5 DUP7 ADD SLOAD AND SWAP5 ADD SLOAD SWAP5 DUP2 MLOAD SWAP7 DUP8 MSTORE PUSH1 0x20 DUP8 ADD MSTORE DUP6 ADD MSTORE PUSH1 0x60 DUP5 ADD MSTORE ISZERO ISZERO PUSH1 0x80 DUP4 ADD MSTORE PUSH1 0xA0 DUP3 ADD MSTORE RETURN JUMPDEST POP DUP3 CALLVALUE PUSH2 0x2F7 JUMPI PUSH1 0x20 SWAP1 DUP2 PUSH1 0x3 NOT CALLDATASIZE ADD SLT PUSH2 0x2F7 JUMPI PUSH1 0x1 PUSH1 0x1 PUSH1 0xA0 SHL SUB SWAP2 DUP3 PUSH2 0x208 PUSH2 0x112C JUMP JUMPDEST AND DUP3 MSTORE PUSH1 0x3 SWAP4 PUSH1 0x3 DUP3 MSTORE DUP6 DUP4 KECCAK256 SWAP5 DUP7 MLOAD DUP1 DUP8 DUP6 DUP3 SWAP10 SLOAD SWAP4 DUP5 DUP2 MSTORE ADD SWAP1 DUP8 MSTORE DUP6 DUP8 KECCAK256 SWAP3 DUP8 JUMPDEST DUP8 DUP3 DUP3 LT PUSH2 0x2E1 JUMPI POP POP POP PUSH2 0x243 SWAP3 POP SUB DUP8 PUSH2 0x1235 JUMP JUMPDEST PUSH2 0x24D DUP7 MLOAD PUSH2 0x139A JUMP JUMPDEST SWAP5 DUP5 JUMPDEST DUP8 MLOAD DUP2 LT ISZERO PUSH2 0x2D0 JUMPI DUP1 PUSH2 0x266 PUSH1 0x1 SWAP3 DUP11 PUSH2 0x13E9 JUMP JUMPDEST MLOAD DUP8 MSTORE DUP2 DUP1 DUP8 MSTORE PUSH1 0x5 DUP12 DUP10 KECCAK256 DUP6 DUP14 MLOAD SWAP4 PUSH2 0x27F DUP6 PUSH2 0x11F1 JUMP JUMPDEST DUP3 SLOAD DUP6 MSTORE DUP3 ADD SLOAD AND DUP10 DUP5 ADD MSTORE DUP6 PUSH1 0x2 DUP3 ADD SLOAD AND DUP14 DUP5 ADD MSTORE DUP7 DUP2 ADD SLOAD PUSH1 0x60 DUP5 ADD MSTORE PUSH1 0xFF DUP9 DUP3 ADD SLOAD AND ISZERO ISZERO PUSH1 0x80 DUP5 ADD MSTORE ADD SLOAD PUSH1 0xA0 DUP3 ADD MSTORE PUSH2 0x2BE DUP3 DUP11 PUSH2 0x13E9 JUMP JUMPDEST MSTORE PUSH2 0x2C9 DUP2 DUP10 PUSH2 0x13E9 JUMP JUMPDEST POP ADD PUSH2 0x250 JUMP JUMPDEST DUP9 MLOAD DUP1 PUSH2 0x2DD DUP10 DUP3 PUSH2 0x116B JUMP JUMPDEST SUB SWAP1 RETURN JUMPDEST DUP6 SLOAD DUP5 MSTORE PUSH1 0x1 SWAP6 DUP7 ADD SWAP6 DUP13 SWAP6 POP SWAP4 ADD SWAP3 ADD PUSH2 0x22C JUMP JUMPDEST DUP1 REVERT JUMPDEST POP CALLVALUE PUSH2 0x170 JUMPI DUP3 PUSH1 0x3 NOT CALLDATASIZE ADD SLT PUSH2 0x170 JUMPI PUSH1 0x20 SWAP3 POP SLOAD SWAP1 MLOAD SWAP1 DUP2 MSTORE RETURN JUMPDEST POP POP CALLVALUE PUSH2 0x334 JUMPI DUP2 PUSH1 0x3 NOT CALLDATASIZE ADD SLT PUSH2 0x334 JUMPI PUSH1 0x20 SWAP1 MLOAD PUSH2 0x3E8 DUP2 MSTORE RETURN JUMPDEST POP DUP1 REVERT JUMPDEST POP SWAP2 SWAP1 CALLVALUE PUSH2 0x334 JUMPI PUSH1 0x60 CALLDATASIZE PUSH1 0x3 NOT ADD SLT PUSH2 0x334 JUMPI PUSH2 0x354 PUSH2 0x112C JUMP JUMPDEST SWAP2 PUSH1 0x24 SWAP4 DUP5 CALLDATALOAD SWAP2 PUSH1 0x44 CALLDATALOAD SWAP1 PUSH2 0x367 PUSH2 0x141C JUMP JUMPDEST PUSH2 0x372 DUP3 ISZERO ISZERO PUSH2 0x1328 JUMP JUMPDEST DUP5 MLOAD PUSH4 0x31A9108F PUSH1 0xE1 SHL DUP2 MSTORE DUP1 DUP5 ADD DUP6 SWAP1 MSTORE PUSH1 0x20 SWAP8 PUSH1 0x1 PUSH1 0x1 PUSH1 0xA0 SHL SUB SWAP8 DUP9 AND SWAP5 SWAP2 DUP10 DUP2 DUP4 DUP2 DUP10 GAS STATICCALL SWAP1 DUP2 ISZERO PUSH2 0x6C6 JUMPI DUP5 SWAP2 PUSH2 0x73F JUMPI JUMPDEST POP DUP9 CALLER SWAP2 AND SUB PUSH2 0x70A JUMPI DUP7 MLOAD PUSH4 0xE985E9C5 PUSH1 0xE0 SHL DUP2 MSTORE CALLER DUP4 DUP3 ADD MSTORE ADDRESS DUP3 DUP3 ADD MSTORE DUP10 DUP2 PUSH1 0x44 DUP2 DUP10 GAS STATICCALL SWAP1 DUP2 ISZERO PUSH2 0x6C6 JUMPI DUP5 SWAP2 PUSH2 0x6D0 JUMPI JUMPDEST POP DUP1 ISZERO PUSH2 0x667 JUMPI JUMPDEST ISZERO PUSH2 0x626 JUMPI DUP5 DUP4 MSTORE PUSH1 0x2 DUP10 MSTORE DUP7 DUP4 KECCAK256 DUP7 DUP5 MSTORE DUP10 MSTORE DUP7 DUP4 KECCAK256 SLOAD ISZERO DUP1 ISZERO PUSH2 0x5FD JUMPI JUMPDEST ISZERO PUSH2 0x5C6 JUMPI PUSH2 0x416 DUP3 SLOAD PUSH2 0x1374 JUMP JUMPDEST SWAP8 DUP9 DUP4 SSTORE PUSH1 0x5 DUP5 DUP11 DUP8 DUP14 DUP13 DUP1 MLOAD SWAP7 PUSH2 0x42D DUP9 PUSH2 0x11F1 JUMP JUMPDEST DUP14 DUP9 MSTORE DUP3 DUP9 ADD SWAP2 DUP14 DUP4 MSTORE PUSH1 0x1 DUP2 DUP11 ADD SWAP5 CALLER DUP7 MSTORE PUSH1 0x60 DUP12 ADD SWAP7 DUP8 MSTORE PUSH1 0x80 DUP12 ADD SWAP8 DUP3 DUP10 MSTORE PUSH1 0xA0 DUP13 ADD SWAP10 TIMESTAMP DUP12 MSTORE MSTORE MSTORE DUP12 KECCAK256 SWAP8 MLOAD DUP9 SSTORE DUP1 PUSH1 0x1 DUP10 ADD SWAP3 MLOAD AND SWAP2 PUSH12 0xFFFFFFFFFFFFFFFFFFFFFFFF PUSH1 0xA0 SHL SWAP3 DUP4 DUP3 SLOAD AND OR SWAP1 SSTORE PUSH1 0x2 DUP9 ADD SWAP3 MLOAD AND SWAP1 DUP3 SLOAD AND OR SWAP1 SSTORE MLOAD PUSH1 0x3 DUP6 ADD SSTORE DUP6 DUP5 ADD SWAP1 MLOAD ISZERO ISZERO PUSH1 0xFF DUP1 NOT DUP4 SLOAD AND SWAP2 AND OR SWAP1 SSTORE MLOAD SWAP2 ADD SSTORE DUP5 DUP4 MSTORE PUSH1 0x2 DUP10 MSTORE DUP7 DUP4 KECCAK256 DUP7 DUP5 MSTORE DUP10 MSTORE DUP8 DUP8 DUP5 KECCAK256 SSTORE CALLER DUP4 MSTORE PUSH1 0x3 DUP10 MSTORE DUP7 DUP4 KECCAK256 DUP1 SLOAD SWAP2 PUSH9 0x10000000000000000 DUP4 LT ISZERO PUSH2 0x5B5 JUMPI POP SWAP1 PUSH2 0x4EE SWAP2 PUSH1 0x1 DUP3 ADD DUP2 SSTORE PUSH2 0x1142 JUMP JUMPDEST DUP2 SLOAD SWAP1 PUSH1 0x3 SHL SWAP1 DUP10 DUP3 SHL SWAP2 PUSH0 NOT SWAP1 SHL NOT AND OR SWAP1 SSTORE DUP4 EXTCODESIZE ISZERO PUSH2 0x334 JUMPI DUP6 MLOAD PUSH4 0x23B872DD PUSH1 0xE0 SHL DUP2 MSTORE CALLER SWAP2 DUP2 ADD SWAP2 DUP3 MSTORE ADDRESS PUSH1 0x20 DUP4 ADD MSTORE PUSH1 0x40 DUP3 ADD DUP7 SWAP1 MSTORE SWAP1 DUP3 SWAP1 DUP3 SWAP1 DUP2 SWAP1 PUSH1 0x60 ADD SUB DUP2 DUP4 DUP9 GAS CALL DUP1 ISZERO PUSH2 0x5AB JUMPI SWAP2 DUP7 SWAP2 DUP9 SWAP4 PUSH2 0x590 JUMPI JUMPDEST POP POP PUSH32 0x9791797C382DE5E73CC7C32C32FFD8304E9B9CC1F6AFD967990C1EDD0729DBA9 SWAP2 SWAP3 DUP2 MLOAD SWAP1 CALLER DUP3 MSTORE DUP10 DUP3 ADD MSTORE LOG4 PUSH1 0x1 PUSH0 DUP1 MLOAD PUSH1 0x20 PUSH2 0x1477 DUP4 CODECOPY DUP2 MLOAD SWAP2 MSTORE SSTORE MLOAD SWAP1 DUP2 MSTORE RETURN JUMPDEST DUP2 SWAP4 POP PUSH2 0x59E SWAP2 SWAP3 POP PUSH2 0x1221 JUMP JUMPDEST PUSH2 0x2F7 JUMPI DUP5 DUP2 DUP8 SWAP3 PUSH2 0x549 JUMP JUMPDEST DUP7 MLOAD RETURNDATASIZE DUP5 DUP3 RETURNDATACOPY RETURNDATASIZE SWAP1 REVERT JUMPDEST PUSH4 0x4E487B71 PUSH1 0xE0 SHL DUP6 MSTORE PUSH1 0x41 DUP5 MSTORE DUP5 REVERT JUMPDEST DUP7 MLOAD PUSH3 0x461BCD PUSH1 0xE5 SHL DUP2 MSTORE SWAP2 DUP3 ADD DUP10 SWAP1 MSTORE PUSH1 0x12 SWAP1 DUP3 ADD MSTORE PUSH18 0x13919508185B1C9958591E481B1A5CDD1959 PUSH1 0x72 SHL PUSH1 0x44 DUP3 ADD MSTORE PUSH1 0x64 SWAP1 REVERT JUMPDEST POP DUP5 DUP4 MSTORE PUSH1 0x2 DUP10 MSTORE DUP7 DUP4 KECCAK256 DUP7 DUP5 MSTORE DUP10 MSTORE DUP7 DUP4 KECCAK256 SLOAD DUP4 MSTORE PUSH1 0x1 DUP10 MSTORE PUSH1 0xFF DUP3 DUP9 DUP6 KECCAK256 ADD SLOAD AND ISZERO PUSH2 0x407 JUMP JUMPDEST DUP7 MLOAD PUSH3 0x461BCD PUSH1 0xE5 SHL DUP2 MSTORE SWAP2 DUP3 ADD DUP10 SWAP1 MSTORE DUP2 ADD DUP9 SWAP1 MSTORE PUSH32 0x4E4654206E6F7420617070726F76656420666F72206D61726B6574706C616365 PUSH1 0x44 DUP3 ADD MSTORE PUSH1 0x64 SWAP1 REVERT JUMPDEST POP DUP7 MLOAD PUSH4 0x20604BF PUSH1 0xE2 SHL DUP2 MSTORE DUP3 DUP2 ADD DUP8 SWAP1 MSTORE DUP10 DUP2 DUP4 DUP2 DUP10 GAS STATICCALL SWAP1 DUP2 ISZERO PUSH2 0x6C6 JUMPI DUP5 SWAP2 PUSH2 0x699 JUMPI JUMPDEST POP DUP9 AND ADDRESS EQ PUSH2 0x3E7 JUMP JUMPDEST PUSH2 0x6B9 SWAP2 POP DUP11 RETURNDATASIZE DUP13 GT PUSH2 0x6BF JUMPI JUMPDEST PUSH2 0x6B1 DUP2 DUP4 PUSH2 0x1235 JUMP JUMPDEST DUP2 ADD SWAP1 PUSH2 0x13FD JUMP JUMPDEST PUSH0 PUSH2 0x68F JUMP JUMPDEST POP RETURNDATASIZE PUSH2 0x6A7 JUMP JUMPDEST DUP9 MLOAD RETURNDATASIZE DUP7 DUP3 RETURNDATACOPY RETURNDATASIZE SWAP1 REVERT JUMPDEST SWAP1 POP DUP10 DUP2 DUP2 RETURNDATASIZE DUP4 GT PUSH2 0x703 JUMPI JUMPDEST PUSH2 0x6E7 DUP2 DUP4 PUSH2 0x1235 JUMP JUMPDEST DUP2 ADD SUB SLT PUSH2 0x6FF JUMPI MLOAD DUP1 ISZERO ISZERO DUP2 SUB PUSH2 0x6FF JUMPI PUSH0 PUSH2 0x3DF JUMP JUMPDEST DUP4 DUP1 REVERT JUMPDEST POP RETURNDATASIZE PUSH2 0x6DD JUMP JUMPDEST DUP7 MLOAD PUSH3 0x461BCD PUSH1 0xE5 SHL DUP2 MSTORE SWAP2 DUP3 ADD DUP10 SWAP1 MSTORE PUSH1 0x10 SWAP1 DUP3 ADD MSTORE PUSH16 0x139BDD081BDDDB995C881BD988139195 PUSH1 0x82 SHL PUSH1 0x44 DUP3 ADD MSTORE PUSH1 0x64 SWAP1 REVERT JUMPDEST PUSH2 0x756 SWAP2 POP DUP11 RETURNDATASIZE DUP13 GT PUSH2 0x6BF JUMPI PUSH2 0x6B1 DUP2 DUP4 PUSH2 0x1235 JUMP JUMPDEST PUSH0 PUSH2 0x3A9 JUMP JUMPDEST POP CALLVALUE PUSH2 0x170 JUMPI PUSH1 0x20 CALLDATASIZE PUSH1 0x3 NOT ADD SLT PUSH2 0x170 JUMPI DUP1 CALLDATALOAD SWAP1 PUSH2 0x779 PUSH2 0x144B JUMP JUMPDEST PUSH2 0x3E8 DUP3 GT PUSH2 0x7BC JUMPI POP SWAP1 PUSH32 0x528D9479E9F9889A87A3C30C7F7BA537E5E59C4C85A37733B16E57C62DF61302 SWAP2 PUSH1 0x5 SLOAD SWAP1 DUP1 PUSH1 0x5 SSTORE DUP3 MLOAD SWAP2 DUP3 MSTORE PUSH1 0x20 DUP3 ADD MSTORE LOG1 DUP1 RETURN JUMPDEST PUSH1 0x64 SWAP1 PUSH1 0x20 DUP5 MLOAD SWAP2 PUSH3 0x461BCD PUSH1 0xE5 SHL DUP4 MSTORE DUP3 ADD MSTORE PUSH1 0xC PUSH1 0x24 DUP3 ADD MSTORE PUSH12 0x8CCACA40E8DEDE40D0D2CED PUSH1 0xA3 SHL PUSH1 0x44 DUP3 ADD MSTORE REVERT JUMPDEST POP POP CALLVALUE PUSH2 0x334 JUMPI DUP2 PUSH1 0x3 NOT CALLDATASIZE ADD SLT PUSH2 0x334 JUMPI SWAP1 SLOAD SWAP1 MLOAD PUSH1 0x1 PUSH1 0x1 PUSH1 0xA0 SHL SUB SWAP1 SWAP2 AND DUP2 MSTORE PUSH1 0x20 SWAP1 RETURN JUMPDEST POP SWAP1 CALLVALUE PUSH2 0x170 JUMPI DUP3 PUSH1 0x3 NOT CALLDATASIZE ADD SLT PUSH2 0x170 JUMPI DUP2 SLOAD SWAP3 DUP1 PUSH1 0x1 JUMPDEST DUP6 DUP2 GT ISZERO PUSH2 0x8FF JUMPI POP PUSH2 0x841 SWAP1 PUSH2 0x139A JUMP JUMPDEST SWAP3 DUP2 PUSH1 0x1 JUMPDEST DUP7 DUP2 GT ISZERO PUSH2 0x85B JUMPI DUP5 MLOAD DUP1 PUSH2 0x2DD DUP9 DUP3 PUSH2 0x116B JUMP JUMPDEST DUP1 DUP3 MSTORE PUSH1 0x20 PUSH1 0x1 DUP2 MSTORE DUP6 DUP4 KECCAK256 PUSH1 0xFF DUP6 DUP3 ADD SLOAD AND DUP1 PUSH2 0x885 JUMPI JUMPDEST POP POP POP PUSH2 0x880 SWAP1 PUSH2 0x1374 JUMP JUMPDEST PUSH2 0x846 JUMP JUMPDEST SWAP2 PUSH1 0x5 PUSH2 0x880 SWAP5 SWAP8 SWAP3 PUSH2 0x8F6 SWAP5 DUP11 MLOAD SWAP4 PUSH2 0x89E DUP6 PUSH2 0x11F1 JUMP JUMPDEST DUP3 SLOAD DUP6 MSTORE PUSH1 0x1 DUP4 ADD SLOAD PUSH1 0x1 PUSH1 0x1 PUSH1 0xA0 SHL SUB SWAP1 DUP2 AND SWAP2 DUP7 ADD SWAP2 SWAP1 SWAP2 MSTORE PUSH1 0x2 DUP4 ADD SLOAD AND DUP12 DUP6 ADD MSTORE PUSH1 0x3 DUP3 ADD SLOAD PUSH1 0x60 DUP6 ADD MSTORE ISZERO ISZERO PUSH1 0x80 DUP5 ADD MSTORE ADD SLOAD PUSH1 0xA0 DUP3 ADD MSTORE PUSH2 0x8E5 DUP3 DUP11 PUSH2 0x13E9 JUMP JUMPDEST MSTORE PUSH2 0x8F0 DUP2 DUP10 PUSH2 0x13E9 JUMP JUMPDEST POP PUSH2 0x1374 JUMP JUMPDEST SWAP4 SWAP1 PUSH0 DUP1 PUSH2 0x874 JUMP JUMPDEST DUP1 DUP4 MSTORE PUSH1 0x1 PUSH1 0x20 MSTORE PUSH1 0xFF DUP6 DUP6 DUP6 KECCAK256 ADD SLOAD AND PUSH2 0x923 JUMPI JUMPDEST PUSH2 0x91E SWAP1 PUSH2 0x1374 JUMP JUMPDEST PUSH2 0x82F JUMP JUMPDEST SWAP1 PUSH2 0x930 PUSH2 0x91E SWAP2 PUSH2 0x1374 JUMP JUMPDEST SWAP2 SWAP1 POP PUSH2 0x915 JUMP JUMPDEST POP SWAP1 CALLVALUE PUSH2 0x170 JUMPI DUP1 PUSH1 0x3 NOT CALLDATASIZE ADD SLT PUSH2 0x170 JUMPI DUP2 CALLDATALOAD SWAP2 PUSH1 0x24 CALLDATALOAD SWAP1 PUSH2 0x959 PUSH2 0x141C JUMP JUMPDEST DUP4 DUP6 MSTORE PUSH1 0x1 PUSH1 0x20 MSTORE DUP3 DUP6 KECCAK256 SWAP1 PUSH2 0x974 PUSH1 0xFF DUP3 DUP5 ADD SLOAD AND PUSH2 0x1287 JUMP JUMPDEST PUSH1 0x2 DUP3 ADD SLOAD PUSH1 0x1 PUSH1 0x1 PUSH1 0xA0 SHL SUB AND CALLER SUB PUSH2 0x9E0 JUMPI POP SWAP1 PUSH1 0x3 PUSH32 0x15819DD2FD9F6418B142E798D08A18D0BF06EA368F4480B7B0D3F75BD966BC48 SWAP4 SWAP3 PUSH2 0x9BA DUP4 ISZERO ISZERO PUSH2 0x1328 JUMP JUMPDEST ADD SWAP1 DUP1 DUP3 SLOAD SWAP3 SSTORE DUP3 MLOAD SWAP2 DUP3 MSTORE PUSH1 0x20 DUP3 ADD MSTORE LOG2 PUSH1 0x1 PUSH0 DUP1 MLOAD PUSH1 0x20 PUSH2 0x1477 DUP4 CODECOPY DUP2 MLOAD SWAP2 MSTORE SSTORE DUP1 RETURN JUMPDEST PUSH1 0x64 SWAP1 PUSH1 0x20 DUP6 MLOAD SWAP2 PUSH3 0x461BCD PUSH1 0xE5 SHL DUP4 MSTORE DUP3 ADD MSTORE PUSH1 0xA PUSH1 0x24 DUP3 ADD MSTORE PUSH10 0x2737BA1039B2B63632B9 PUSH1 0xB1 SHL PUSH1 0x44 DUP3 ADD MSTORE REVERT JUMPDEST DUP4 CALLVALUE PUSH2 0x2F7 JUMPI DUP1 PUSH1 0x3 NOT CALLDATASIZE ADD SLT PUSH2 0x2F7 JUMPI PUSH2 0xA29 PUSH2 0x144B JUMP JUMPDEST PUSH0 DUP1 SLOAD PUSH1 0x1 PUSH1 0x1 PUSH1 0xA0 SHL SUB NOT DUP2 AND DUP3 SSTORE PUSH1 0x1 PUSH1 0x1 PUSH1 0xA0 SHL SUB AND PUSH32 0x8BE0079C531659141344CD1FD0A4F28419497F9722A3DAAFE3B4186F6B6457E0 DUP3 DUP1 LOG3 DUP1 RETURN JUMPDEST POP POP CALLVALUE PUSH2 0x334 JUMPI DUP1 PUSH1 0x3 NOT CALLDATASIZE ADD SLT PUSH2 0x334 JUMPI PUSH1 0x20 SWAP2 DUP2 SWAP1 PUSH1 0x1 PUSH1 0x1 PUSH1 0xA0 SHL SUB PUSH2 0xA90 PUSH2 0x112C JUMP JUMPDEST AND DUP2 MSTORE PUSH1 0x2 DUP5 MSTORE DUP2 DUP2 KECCAK256 PUSH1 0x24 CALLDATALOAD DUP3 MSTORE DUP5 MSTORE KECCAK256 SLOAD SWAP1 MLOAD SWAP1 DUP2 MSTORE RETURN JUMPDEST POP POP CALLVALUE PUSH2 0x334 JUMPI DUP2 PUSH1 0x3 NOT CALLDATASIZE ADD SLT PUSH2 0x334 JUMPI PUSH1 0x20 SWAP1 PUSH1 0x5 SLOAD SWAP1 MLOAD SWAP1 DUP2 MSTORE RETURN JUMPDEST POP PUSH1 0x20 SWAP2 DUP3 PUSH1 0x3 NOT CALLDATASIZE ADD SLT PUSH2 0x6FF JUMPI DUP2 CALLDATALOAD SWAP1 PUSH2 0xAE3 PUSH2 0x141C JUMP JUMPDEST DUP2 DUP6 MSTORE PUSH1 0x1 DUP5 MSTORE DUP1 DUP6 KECCAK256 SWAP3 DUP1 DUP5 ADD SWAP5 DUP6 SLOAD SWAP1 PUSH2 0xB01 PUSH1 0xFF DUP4 AND PUSH2 0x1287 JUMP JUMPDEST PUSH1 0x3 DUP7 ADD SWAP3 DUP4 SLOAD SWAP2 DUP3 CALLVALUE LT PUSH2 0xDA4 JUMPI PUSH1 0x2 DUP9 ADD SWAP9 PUSH1 0x1 DUP1 PUSH1 0xA0 SHL SUB SWAP5 DUP6 DUP12 SLOAD AND CALLER EQ PUSH2 0xD61 JUMPI PUSH1 0xFF NOT AND SWAP1 SSTORE PUSH1 0x5 SLOAD DUP1 DUP5 MUL SWAP1 DUP5 DUP3 DIV EQ DUP5 ISZERO OR ISZERO PUSH2 0xD4E JUMPI PUSH2 0x2710 PUSH2 0xB4F SWAP2 DIV DUP1 SWAP5 PUSH2 0x1307 JUMP JUMPDEST SWAP3 DUP11 PUSH1 0x1 DUP11 ADD SWAP5 DUP7 DUP7 SLOAD AND DUP12 SLOAD SWAP1 DUP1 EXTCODESIZE ISZERO PUSH2 0x6FF JUMPI DUP11 MLOAD PUSH4 0x23B872DD PUSH1 0xE0 SHL DUP2 MSTORE ADDRESS DUP9 DUP3 ADD SWAP1 DUP2 MSTORE CALLER PUSH1 0x20 DUP3 ADD MSTORE PUSH1 0x40 DUP2 ADD SWAP4 SWAP1 SWAP4 MSTORE SWAP2 DUP5 SWAP2 DUP4 SWAP2 DUP3 SWAP1 DUP5 SWAP1 DUP3 SWAP1 PUSH1 0x60 ADD SUB SWAP3 GAS CALL DUP1 ISZERO PUSH2 0xD44 JUMPI DUP14 DUP5 SWAP3 DUP11 SWAP3 PUSH2 0xD2B JUMPI JUMPDEST POP SWAP3 DUP3 SWAP4 SWAP2 DUP4 SWAP3 SLOAD AND GAS CALL PUSH2 0xBBA PUSH2 0x12C8 JUMP JUMPDEST POP ISZERO PUSH2 0xCE8 JUMPI DUP1 DUP12 SWAP2 PUSH2 0xC91 JUMPI JUMPDEST POP DUP6 SLOAD DUP1 CALLVALUE GT PUSH2 0xC3A JUMPI JUMPDEST POP POP SWAP2 SLOAD SWAP7 SLOAD SWAP8 SLOAD SWAP4 SLOAD SWAP5 MLOAD SWAP4 DUP4 AND PUSH1 0x1 PUSH1 0x1 PUSH1 0xA0 SHL SUB AND DUP5 MSTORE POP POP CALLER PUSH1 0x20 DUP4 ADD MSTORE PUSH1 0x40 DUP3 ADD SWAP3 SWAP1 SWAP3 MSTORE SWAP3 AND SWAP2 PUSH32 0xA2E6E4D40C14021B8BA9FE827B3D6D467185016A377C5AB1AAB7A5DD9619AC24 SWAP1 PUSH1 0x60 SWAP1 LOG4 PUSH1 0x1 PUSH0 DUP1 MLOAD PUSH1 0x20 PUSH2 0x1477 DUP4 CODECOPY DUP2 MLOAD SWAP2 MSTORE SSTORE DUP1 RETURN JUMPDEST DUP2 DUP1 PUSH2 0xC47 DUP2 SWAP4 CALLVALUE PUSH2 0x1307 JUMP JUMPDEST CALLER GAS CALL PUSH2 0xC52 PUSH2 0x12C8 JUMP JUMPDEST POP ISZERO PUSH2 0xC5F JUMPI DUP10 DUP2 PUSH2 0xBD3 JUMP JUMPDEST DUP6 MLOAD PUSH3 0x461BCD PUSH1 0xE5 SHL DUP2 MSTORE SWAP2 DUP3 ADD MSTORE PUSH1 0xD PUSH1 0x24 DUP3 ADD MSTORE PUSH13 0x1499599D5B990819985A5B1959 PUSH1 0x9A SHL PUSH1 0x44 DUP3 ADD MSTORE PUSH1 0x64 SWAP2 POP REVERT JUMPDEST DUP2 DUP1 DUP1 SWAP3 DUP9 DUP3 SLOAD AND GAS CALL PUSH2 0xCA3 PUSH2 0x12C8 JUMP JUMPDEST POP ISZERO PUSH2 0xCB0 JUMPI DUP10 PUSH0 PUSH2 0xBC8 JUMP JUMPDEST DUP6 MLOAD PUSH3 0x461BCD PUSH1 0xE5 SHL DUP2 MSTORE SWAP2 DUP3 ADD MSTORE PUSH1 0x13 PUSH1 0x24 DUP3 ADD MSTORE PUSH19 0x119959481D1C985B9CD9995C8819985A5B1959 PUSH1 0x6A SHL PUSH1 0x44 DUP3 ADD MSTORE PUSH1 0x64 SWAP2 POP REVERT JUMPDEST DUP7 MLOAD PUSH3 0x461BCD PUSH1 0xE5 SHL DUP2 MSTORE DUP1 DUP5 ADD DUP4 SWAP1 MSTORE PUSH1 0x18 PUSH1 0x24 DUP3 ADD MSTORE PUSH32 0x5061796D656E7420746F2073656C6C6572206661696C65640000000000000000 PUSH1 0x44 DUP3 ADD MSTORE PUSH1 0x64 SWAP1 REVERT JUMPDEST SWAP1 POP PUSH2 0xD37 SWAP2 POP PUSH2 0x1221 JUMP JUMPDEST PUSH2 0x334 JUMPI DUP2 DUP8 DUP14 PUSH0 PUSH2 0xBA7 JUMP JUMPDEST DUP11 MLOAD RETURNDATASIZE DUP6 DUP3 RETURNDATACOPY RETURNDATASIZE SWAP1 REVERT JUMPDEST PUSH4 0x4E487B71 PUSH1 0xE0 SHL DUP12 MSTORE PUSH1 0x11 DUP4 MSTORE PUSH1 0x24 DUP12 REVERT JUMPDEST DUP8 MLOAD PUSH3 0x461BCD PUSH1 0xE5 SHL DUP2 MSTORE DUP1 DUP6 ADD DUP5 SWAP1 MSTORE PUSH1 0x17 PUSH1 0x24 DUP3 ADD MSTORE PUSH32 0x43616E6E6F742062757920796F7572206F776E204E4654000000000000000000 PUSH1 0x44 DUP3 ADD MSTORE PUSH1 0x64 SWAP1 REVERT JUMPDEST DUP6 MLOAD PUSH3 0x461BCD PUSH1 0xE5 SHL DUP2 MSTORE SWAP2 DUP3 ADD MSTORE PUSH1 0x14 PUSH1 0x24 DUP3 ADD MSTORE PUSH20 0x125B9CDD59999A58DA595B9D081C185E5B595B9D PUSH1 0x62 SHL PUSH1 0x44 DUP3 ADD MSTORE PUSH1 0x64 SWAP2 POP REVERT JUMPDEST POP SWAP1 CALLVALUE PUSH2 0x170 JUMPI DUP3 PUSH1 0x3 NOT CALLDATASIZE ADD SLT PUSH2 0x170 JUMPI PUSH2 0xDF7 PUSH2 0x144B JUMP JUMPDEST SELFBALANCE DUP1 ISZERO PUSH2 0xE5C JUMPI DUP4 SLOAD DUP5 SWAP2 DUP3 SWAP2 DUP3 SWAP2 DUP3 SWAP2 PUSH1 0x1 PUSH1 0x1 PUSH1 0xA0 SHL SUB AND GAS CALL PUSH2 0xE1B PUSH2 0x12C8 JUMP JUMPDEST POP ISZERO PUSH2 0xE25 JUMPI DUP3 DUP1 RETURN JUMPDEST SWAP1 PUSH1 0x20 PUSH1 0x64 SWAP3 MLOAD SWAP2 PUSH3 0x461BCD PUSH1 0xE5 SHL DUP4 MSTORE DUP3 ADD MSTORE PUSH1 0x11 PUSH1 0x24 DUP3 ADD MSTORE PUSH17 0x15DA5D1A191C985DD85B0819985A5B1959 PUSH1 0x7A SHL PUSH1 0x44 DUP3 ADD MSTORE REVERT JUMPDEST DUP2 MLOAD PUSH3 0x461BCD PUSH1 0xE5 SHL DUP2 MSTORE PUSH1 0x20 DUP2 DUP6 ADD MSTORE PUSH1 0x16 PUSH1 0x24 DUP3 ADD MSTORE PUSH22 0x4E6F2062616C616E636520746F207769746864726177 PUSH1 0x50 SHL PUSH1 0x44 DUP3 ADD MSTORE PUSH1 0x64 SWAP1 REVERT JUMPDEST POP SWAP1 CALLVALUE PUSH2 0xFAF JUMPI PUSH1 0x20 CALLDATASIZE PUSH1 0x3 NOT ADD SLT PUSH2 0xFAF JUMPI DUP2 CALLDATALOAD SWAP2 PUSH2 0xEB6 PUSH2 0x141C JUMP JUMPDEST DUP3 PUSH0 MSTORE PUSH1 0x1 PUSH1 0x20 MSTORE DUP2 PUSH0 KECCAK256 SWAP1 DUP1 DUP3 ADD SWAP3 DUP4 SLOAD SWAP2 PUSH2 0xED5 PUSH1 0xFF DUP5 AND PUSH2 0x1287 JUMP JUMPDEST PUSH1 0x2 DUP5 ADD SWAP4 PUSH1 0x1 DUP1 PUSH1 0xA0 SHL SUB SWAP6 DUP7 DUP7 SLOAD AND SWAP5 DUP6 CALLER EQ DUP1 ISZERO PUSH2 0xFE7 JUMPI JUMPDEST ISZERO PUSH2 0xFB3 JUMPI PUSH1 0xFF NOT AND SWAP1 SSTORE PUSH1 0x1 DUP2 ADD SLOAD SWAP1 SLOAD SWAP1 DUP7 AND DUP1 EXTCODESIZE ISZERO PUSH2 0xFAF JUMPI DUP4 MLOAD PUSH4 0x23B872DD PUSH1 0xE0 SHL DUP2 MSTORE ADDRESS SWAP4 DUP2 ADD SWAP4 DUP5 MSTORE PUSH1 0x1 PUSH1 0x1 PUSH1 0xA0 SHL SUB SWAP1 SWAP6 AND PUSH1 0x20 DUP5 ADD MSTORE PUSH1 0x40 DUP4 ADD SWAP2 SWAP1 SWAP2 MSTORE PUSH0 SWAP2 DUP5 SWAP2 SWAP1 DUP3 SWAP1 DUP5 SWAP1 DUP3 SWAP1 PUSH1 0x60 ADD SUB SWAP3 GAS CALL SWAP1 DUP2 ISZERO PUSH2 0xFA6 JUMPI POP PUSH2 0xF93 JUMPI JUMPDEST POP SLOAD AND SWAP1 PUSH32 0x8E25282255AB31897DF2B0456BB993AC7F84D376861AEFD84901D2D63A7428A2 DUP4 DUP1 LOG3 PUSH1 0x1 PUSH0 DUP1 MLOAD PUSH1 0x20 PUSH2 0x1477 DUP4 CODECOPY DUP2 MLOAD SWAP2 MSTORE SSTORE DUP1 RETURN JUMPDEST PUSH2 0xF9E SWAP2 SWAP5 POP PUSH2 0x1221 JUMP JUMPDEST PUSH0 SWAP3 PUSH0 PUSH2 0xF57 JUMP JUMPDEST MLOAD RETURNDATASIZE PUSH0 DUP3 RETURNDATACOPY RETURNDATASIZE SWAP1 REVERT JUMPDEST PUSH0 DUP1 REVERT JUMPDEST DUP5 MLOAD PUSH3 0x461BCD PUSH1 0xE5 SHL DUP2 MSTORE PUSH1 0x20 DUP2 DUP7 ADD MSTORE PUSH1 0xE PUSH1 0x24 DUP3 ADD MSTORE PUSH14 0x139BDD08185D5D1A1BDC9A5E9959 PUSH1 0x92 SHL PUSH1 0x44 DUP3 ADD MSTORE PUSH1 0x64 SWAP1 REVERT JUMPDEST POP DUP8 PUSH0 SLOAD AND CALLER EQ PUSH2 0xEF1 JUMP JUMPDEST POP CALLVALUE PUSH2 0xFAF JUMPI DUP2 PUSH1 0x3 NOT CALLDATASIZE ADD SLT PUSH2 0xFAF JUMPI PUSH2 0x10D3 PUSH1 0xC0 SWAP3 PUSH1 0x5 PUSH2 0x1014 PUSH2 0x112C JUMP JUMPDEST SWAP4 PUSH2 0x101D PUSH2 0x1257 JUMP JUMPDEST POP PUSH1 0x1 DUP1 PUSH1 0xA0 SHL SUB DUP1 SWAP6 AND PUSH0 MSTORE PUSH1 0x2 PUSH1 0x20 MSTORE DUP3 PUSH0 KECCAK256 PUSH1 0x24 CALLDATALOAD PUSH0 MSTORE PUSH1 0x20 MSTORE DUP3 PUSH0 KECCAK256 SLOAD PUSH0 MSTORE PUSH1 0x1 PUSH1 0x20 MSTORE PUSH1 0xFF DUP4 PUSH0 KECCAK256 SWAP2 DUP5 MLOAD SWAP7 PUSH2 0x1057 DUP9 PUSH2 0x11F1 JUMP JUMPDEST DUP4 SLOAD DUP9 MSTORE DUP1 PUSH1 0x1 DUP6 ADD SLOAD AND PUSH1 0x20 DUP10 ADD MSTORE PUSH1 0x2 DUP5 ADD SLOAD AND DUP6 DUP9 ADD MSTORE PUSH1 0x3 DUP4 ADD SLOAD PUSH1 0x60 DUP9 ADD MSTORE DUP3 ADD SLOAD AND ISZERO ISZERO PUSH1 0x80 DUP7 ADD MSTORE ADD SLOAD PUSH1 0xA0 DUP5 ADD MSTORE MLOAD DUP1 SWAP3 PUSH1 0xA0 DUP1 SWAP2 DUP1 MLOAD DUP5 MSTORE PUSH1 0x20 DUP2 ADD MLOAD PUSH1 0x1 DUP1 DUP5 SHL SUB DUP1 SWAP2 AND PUSH1 0x20 DUP7 ADD MSTORE PUSH1 0x40 DUP3 ADD MLOAD AND PUSH1 0x40 DUP6 ADD MSTORE PUSH1 0x60 DUP2 ADD MLOAD PUSH1 0x60 DUP6 ADD MSTORE PUSH1 0x80 DUP2 ADD MLOAD ISZERO ISZERO PUSH1 0x80 DUP6 ADD MSTORE ADD MLOAD SWAP2 ADD MSTORE JUMP JUMPDEST RETURN JUMPDEST DUP3 CALLVALUE PUSH2 0xFAF JUMPI DUP1 PUSH1 0x3 NOT CALLDATASIZE ADD SLT PUSH2 0xFAF JUMPI PUSH2 0x10EE PUSH2 0x112C JUMP JUMPDEST PUSH1 0x1 PUSH1 0x1 PUSH1 0xA0 SHL SUB AND PUSH0 SWAP1 DUP2 MSTORE PUSH1 0x3 PUSH1 0x20 MSTORE DUP2 SWAP1 KECCAK256 DUP1 SLOAD PUSH1 0x24 CALLDATALOAD SWAP3 SWAP2 SWAP1 DUP4 LT ISZERO PUSH2 0xFAF JUMPI PUSH1 0x20 SWAP3 PUSH2 0x111E SWAP2 PUSH2 0x1142 JUMP JUMPDEST SWAP1 SLOAD SWAP1 PUSH1 0x3 SHL SHR SWAP1 MLOAD SWAP1 DUP2 MSTORE RETURN JUMPDEST PUSH1 0x4 CALLDATALOAD SWAP1 PUSH1 0x1 PUSH1 0x1 PUSH1 0xA0 SHL SUB DUP3 AND DUP3 SUB PUSH2 0xFAF JUMPI JUMP JUMPDEST DUP1 SLOAD DUP3 LT ISZERO PUSH2 0x1157 JUMPI PUSH0 MSTORE PUSH1 0x20 PUSH0 KECCAK256 ADD SWAP1 PUSH0 SWAP1 JUMP JUMPDEST PUSH4 0x4E487B71 PUSH1 0xE0 SHL PUSH0 MSTORE PUSH1 0x32 PUSH1 0x4 MSTORE PUSH1 0x24 PUSH0 REVERT JUMPDEST PUSH1 0x20 SWAP1 PUSH1 0x20 PUSH1 0x40 DUP2 DUP4 ADD SWAP3 DUP3 DUP2 MSTORE DUP6 MLOAD DUP1 SWAP5 MSTORE ADD SWAP4 ADD SWAP2 PUSH0 JUMPDEST DUP3 DUP2 LT PUSH2 0x1192 JUMPI POP POP POP POP SWAP1 JUMP JUMPDEST SWAP1 SWAP2 SWAP3 SWAP4 DUP3 PUSH1 0xC0 DUP3 PUSH2 0x11E5 PUSH1 0x1 SWAP5 DUP10 MLOAD PUSH1 0xA0 DUP1 SWAP2 DUP1 MLOAD DUP5 MSTORE PUSH1 0x20 DUP2 ADD MLOAD PUSH1 0x1 DUP1 DUP5 SHL SUB DUP1 SWAP2 AND PUSH1 0x20 DUP7 ADD MSTORE PUSH1 0x40 DUP3 ADD MLOAD AND PUSH1 0x40 DUP6 ADD MSTORE PUSH1 0x60 DUP2 ADD MLOAD PUSH1 0x60 DUP6 ADD MSTORE PUSH1 0x80 DUP2 ADD MLOAD ISZERO ISZERO PUSH1 0x80 DUP6 ADD MSTORE ADD MLOAD SWAP2 ADD MSTORE JUMP JUMPDEST ADD SWAP6 ADD SWAP4 SWAP3 SWAP2 ADD PUSH2 0x1184 JUMP JUMPDEST PUSH1 0xC0 DUP2 ADD SWAP1 DUP2 LT PUSH8 0xFFFFFFFFFFFFFFFF DUP3 GT OR PUSH2 0x120D JUMPI PUSH1 0x40 MSTORE JUMP JUMPDEST PUSH4 0x4E487B71 PUSH1 0xE0 SHL PUSH0 MSTORE PUSH1 0x41 PUSH1 0x4 MSTORE PUSH1 0x24 PUSH0 REVERT JUMPDEST PUSH8 0xFFFFFFFFFFFFFFFF DUP2 GT PUSH2 0x120D JUMPI PUSH1 0x40 MSTORE JUMP JUMPDEST SWAP1 PUSH1 0x1F DUP1 NOT SWAP2 ADD AND DUP2 ADD SWAP1 DUP2 LT PUSH8 0xFFFFFFFFFFFFFFFF DUP3 GT OR PUSH2 0x120D JUMPI PUSH1 0x40 MSTORE JUMP JUMPDEST PUSH1 0x40 MLOAD SWAP1 PUSH2 0x1264 DUP3 PUSH2 0x11F1 JUMP JUMPDEST PUSH0 PUSH1 0xA0 DUP4 DUP3 DUP2 MSTORE DUP3 PUSH1 0x20 DUP3 ADD MSTORE DUP3 PUSH1 0x40 DUP3 ADD MSTORE DUP3 PUSH1 0x60 DUP3 ADD MSTORE DUP3 PUSH1 0x80 DUP3 ADD MSTORE ADD MSTORE JUMP JUMPDEST ISZERO PUSH2 0x128E JUMPI JUMP JUMPDEST PUSH1 0x40 MLOAD PUSH3 0x461BCD PUSH1 0xE5 SHL DUP2 MSTORE PUSH1 0x20 PUSH1 0x4 DUP3 ADD MSTORE PUSH1 0x12 PUSH1 0x24 DUP3 ADD MSTORE PUSH18 0x4C697374696E67206E6F7420616374697665 PUSH1 0x70 SHL PUSH1 0x44 DUP3 ADD MSTORE PUSH1 0x64 SWAP1 REVERT JUMPDEST RETURNDATASIZE ISZERO PUSH2 0x1302 JUMPI RETURNDATASIZE SWAP1 PUSH8 0xFFFFFFFFFFFFFFFF DUP3 GT PUSH2 0x120D JUMPI PUSH1 0x40 MLOAD SWAP2 PUSH2 0x12F7 PUSH1 0x1F DUP3 ADD PUSH1 0x1F NOT AND PUSH1 0x20 ADD DUP5 PUSH2 0x1235 JUMP JUMPDEST DUP3 MSTORE RETURNDATASIZE PUSH0 PUSH1 0x20 DUP5 ADD RETURNDATACOPY JUMP JUMPDEST PUSH1 0x60 SWAP1 JUMP JUMPDEST SWAP2 SWAP1 DUP3 SUB SWAP2 DUP3 GT PUSH2 0x1314 JUMPI JUMP JUMPDEST PUSH4 0x4E487B71 PUSH1 0xE0 SHL PUSH0 MSTORE PUSH1 0x11 PUSH1 0x4 MSTORE PUSH1 0x24 PUSH0 REVERT JUMPDEST ISZERO PUSH2 0x132F JUMPI JUMP JUMPDEST PUSH1 0x40 MLOAD PUSH3 0x461BCD PUSH1 0xE5 SHL DUP2 MSTORE PUSH1 0x20 PUSH1 0x4 DUP3 ADD MSTORE PUSH1 0x1C PUSH1 0x24 DUP3 ADD MSTORE PUSH32 0x5072696365206D7573742062652067726561746572207468616E203000000000 PUSH1 0x44 DUP3 ADD MSTORE PUSH1 0x64 SWAP1 REVERT JUMPDEST PUSH0 NOT DUP2 EQ PUSH2 0x1314 JUMPI PUSH1 0x1 ADD SWAP1 JUMP JUMPDEST PUSH8 0xFFFFFFFFFFFFFFFF DUP2 GT PUSH2 0x120D JUMPI PUSH1 0x5 SHL PUSH1 0x20 ADD SWAP1 JUMP JUMPDEST SWAP1 PUSH2 0x13A4 DUP3 PUSH2 0x1382 JUMP JUMPDEST PUSH2 0x13B1 PUSH1 0x40 MLOAD SWAP2 DUP3 PUSH2 0x1235 JUMP JUMPDEST DUP3 DUP2 MSTORE DUP1 SWAP3 PUSH2 0x13C2 PUSH1 0x1F NOT SWAP2 PUSH2 0x1382 JUMP JUMPDEST ADD SWAP1 PUSH0 JUMPDEST DUP3 DUP2 LT PUSH2 0x13D2 JUMPI POP POP POP JUMP JUMPDEST PUSH1 0x20 SWAP1 PUSH2 0x13DD PUSH2 0x1257 JUMP JUMPDEST DUP3 DUP3 DUP6 ADD ADD MSTORE ADD PUSH2 0x13C6 JUMP JUMPDEST DUP1 MLOAD DUP3 LT ISZERO PUSH2 0x1157 JUMPI PUSH1 0x20 SWAP2 PUSH1 0x5 SHL ADD ADD SWAP1 JUMP JUMPDEST SWAP1 DUP2 PUSH1 0x20 SWAP2 SUB SLT PUSH2 0xFAF JUMPI MLOAD PUSH1 0x1 PUSH1 0x1 PUSH1 0xA0 SHL SUB DUP2 AND DUP2 SUB PUSH2 0xFAF JUMPI SWAP1 JUMP JUMPDEST PUSH0 DUP1 MLOAD PUSH1 0x20 PUSH2 0x1477 DUP4 CODECOPY DUP2 MLOAD SWAP2 MSTORE PUSH1 0x2 DUP2 SLOAD EQ PUSH2 0x1439 JUMPI PUSH1 0x2 SWAP1 SSTORE JUMP JUMPDEST PUSH1 0x40 MLOAD PUSH4 0x3EE5AEB5 PUSH1 0xE0 SHL DUP2 MSTORE PUSH1 0x4 SWAP1 REVERT JUMPDEST PUSH0 SLOAD PUSH1 0x1 PUSH1 0x1 PUSH1 0xA0 SHL SUB AND CALLER SUB PUSH2 0x145E JUMPI JUMP JUMPDEST PUSH1 0x40 MLOAD PUSH4 0x118CDAA7 PUSH1 0xE0 SHL DUP2 MSTORE CALLER PUSH1 0x4 DUP3 ADD MSTORE PUSH1 0x24 SWAP1 REVERT INVALID SWAP12 PUSH24 0x9B17422D0DF92223018B32B4D1FA46E071723D6817E2486D STOP EXTCODESIZE 0xEC 0xC5 PUSH0 STOP LOG2 PUSH5 0x6970667358 0x22 SLT KECCAK256 0xDA AND 0xAA MSTORE PUSH29 0x6D85BF8BC55ADB8A04EC0391362988BD38C06C934E770FCA64A37D6473 PUSH16 0x6C634300081800330000000000000000 "},"methodIdentifiers":{"MAX_FEE()":"bc063e1a","buyNFT(uint256)":"51ed8288","cancelListing(uint256)":"305a67a8","getActiveListings()":"87c35bc0","getListingByToken(address,uint256)":"248d9aa3","getListingsBySeller(address)":"d8cba251","listNFT(address,uint256,uint256)":"ad05f1b4","listings(uint256)":"de74e57b","marketplaceFee()":"6a166964","owner()":"8da5cb5b","renounceOwnership()":"715018a6","sellerListings(address,uint256)":"054564f0","tokenToListing(address,uint256)":"6f7b4352","totalListings()":"c78b616c","transferOwnership(address)":"f2fde38b","updateFee(uint256)":"9012c4a8","updatePrice(uint256,uint256)":"82367b2d","withdraw()":"3ccfd60b"}}}}}